{
  "_format": "hh-sol-artifact-1",
  "contractName": "RNG",
  "sourceName": "contracts/RNG.sol",
  "abi": [
    {
      "inputs": [],
      "stateMutability": "nonpayable",
      "type": "constructor"
    },
    {
      "inputs": [
        {
          "internalType": "uint256",
          "name": "lo",
          "type": "uint256"
        },
        {
          "internalType": "uint256",
          "name": "hi",
          "type": "uint256"
        }
      ],
      "name": "InvalidModuloRange",
      "type": "error"
    },
    {
      "anonymous": false,
      "inputs": [
        {
          "indexed": true,
          "internalType": "address",
          "name": "previousOwner",
          "type": "address"
        },
        {
          "indexed": true,
          "internalType": "address",
          "name": "newOwner",
          "type": "address"
        }
      ],
      "name": "OwnershipTransferred",
      "type": "event"
    },
    {
      "inputs": [],
      "name": "chainlink",
      "outputs": [
        {
          "internalType": "contract IChainlinkPrice",
          "name": "",
          "type": "address"
        }
      ],
      "stateMutability": "view",
      "type": "function"
    },
    {
      "inputs": [
        {
          "internalType": "uint256",
          "name": "lo",
          "type": "uint256"
        },
        {
          "internalType": "uint256",
          "name": "hi",
          "type": "uint256"
        }
      ],
      "name": "generateModulo",
      "outputs": [
        {
          "internalType": "uint256",
          "name": "",
          "type": "uint256"
        }
      ],
      "stateMutability": "nonpayable",
      "type": "function"
    },
    {
      "inputs": [
        {
          "internalType": "uint256",
          "name": "count",
          "type": "uint256"
        }
      ],
      "name": "generateMultiple",
      "outputs": [
        {
          "internalType": "uint256[]",
          "name": "",
          "type": "uint256[]"
        }
      ],
      "stateMutability": "nonpayable",
      "type": "function"
    },
    {
      "inputs": [],
      "name": "generateNextRandomVariable",
      "outputs": [
        {
          "internalType": "uint256",
          "name": "",
          "type": "uint256"
        }
      ],
      "stateMutability": "nonpayable",
      "type": "function"
    },
    {
      "inputs": [],
      "name": "getChainlinkPrice",
      "outputs": [
        {
          "internalType": "uint256",
          "name": "",
          "type": "uint256"
        }
      ],
      "stateMutability": "view",
      "type": "function"
    },
    {
      "inputs": [
        {
          "internalType": "uint256",
          "name": "val",
          "type": "uint256"
        },
        {
          "internalType": "uint256",
          "name": "lo",
          "type": "uint256"
        },
        {
          "internalType": "uint256",
          "name": "hi",
          "type": "uint256"
        }
      ],
      "name": "getModulo",
      "outputs": [
        {
          "internalType": "uint256",
          "name": "",
          "type": "uint256"
        }
      ],
      "stateMutability": "pure",
      "type": "function"
    },
    {
      "inputs": [],
      "name": "owner",
      "outputs": [
        {
          "internalType": "address",
          "name": "",
          "type": "address"
        }
      ],
      "stateMutability": "view",
      "type": "function"
    },
    {
      "inputs": [],
      "name": "renounceOwnership",
      "outputs": [],
      "stateMutability": "nonpayable",
      "type": "function"
    },
    {
      "inputs": [],
      "name": "shuffleRandomNumbers",
      "outputs": [],
      "stateMutability": "nonpayable",
      "type": "function"
    },
    {
      "inputs": [
        {
          "internalType": "address",
          "name": "newOwner",
          "type": "address"
        }
      ],
      "name": "transferOwnership",
      "outputs": [],
      "stateMutability": "nonpayable",
      "type": "function"
    },
    {
      "inputs": [
        {
          "internalType": "address",
          "name": "_int",
          "type": "address"
        }
      ],
      "name": "updateChainlink",
      "outputs": [],
      "stateMutability": "nonpayable",
      "type": "function"
    },
    {
      "inputs": [
        {
          "internalType": "uint256",
          "name": "val",
          "type": "uint256"
        }
      ],
      "name": "updateRandSeed",
      "outputs": [],
      "stateMutability": "nonpayable",
      "type": "function"
    }
  ],
  "bytecode": "0x608060405234801561001057600080fd5b5061001a33610024565b6000600b55610074565b600080546001600160a01b038381166001600160a01b0319831681178455604051919092169283917f8be0079c531659141344cd1fd0a4f28419497f9722a3daafe3b4186f6b6457e09190a35050565b610963806100836000396000f3fe608060405234801561001057600080fd5b50600436106100b35760003560e01c806378561d151161007157806378561d15146101205780638da5cb5b146101335780639c3feeb714610158578063b1fb60d71461016b578063bd7a127d1461017e578063f2fde38b1461019157600080fd5b8062bf7199146100b85780632ba91432146100d35780633174fd2a146100e85780633aeef3d3146100f057806347ec651b146100f8578063715018a614610118575b600080fd5b6100c06101a4565b6040519081526020015b60405180910390f35b6100e66100e136600461072e565b610323565b005b6100e661039d565b6100c06103c7565b61010b61010636600461075e565b61045e565b6040516100ca9190610777565b6100e66104f0565b6100e661012e36600461075e565b610504565b6000546001600160a01b03165b6040516001600160a01b0390911681526020016100ca565b600c54610140906001600160a01b031681565b6100c06101793660046107bb565b610543565b6100c061018c3660046107e7565b6105a2565b6100e661019f36600461072e565b61060e565b600c5460009081906001600160a01b03161561023657600c60009054906101000a90046001600160a01b03166001600160a01b031663feaf968c6040518163ffffffff1660e01b815260040160a060405180830381865afa925050508015610229575060408051601f3d908101601f1916820190925261022691810190610823565b60015b1561023657509193505050505b600b5460a082901b4260e01b1790606090600190600a811061025a5761025a610873565b0154901c811790506000600a600b546001610275919061089f565b61027f91906108b2565b90506f7fffffffffffffffffffffffffffffff608083901c83181660006102b6826f0c1bf57be3d9d0668612b7ba93616c536108d4565b6102d0906f0126e489f71c41c28951ca38a43c831761089f565b6040516020016102e291815260200190565b6040516020818303038152906040528051906020012060001c9050808218600184600a811061031357610313610873565b0155600b92909255509392505050565b61032b610684565b600c546001600160a01b0380831691160361037b5760405162461bcd60e51b815260206004820152600b60248201526a105b1c9958591e4814d95d60aa1b60448201526064015b60405180910390fd5b600c80546001600160a01b0319166001600160a01b0392909216919091179055565b60005b600a8110156103c4576103b16101a4565b50806103bc816108eb565b9150506103a0565b50565b600c5460009081906001600160a01b03161561045957600c60009054906101000a90046001600160a01b03166001600160a01b031663feaf968c6040518163ffffffff1660e01b815260040160a060405180830381865afa92505050801561044c575060408051601f3d908101601f1916820190925261044991810190610823565b60015b1561045957509193505050505b919050565b606060008267ffffffffffffffff81111561047b5761047b610904565b6040519080825280602002602001820160405280156104a4578160200160208202803683370190505b50905060005b838110156104e9576104ba6101a4565b8282815181106104cc576104cc610873565b6020908102919091010152806104e1816108eb565b9150506104aa565b5092915050565b6104f8610684565b61050260006106de565b565b6040805160208101839052016040516020818303038152906040528051906020012060001c6001600b54600a811061053e5761053e610873565b015550565b600081831061056f576040516383cddbbb60e01b81526004810184905260248101839052604401610372565b828061057c84600161089f565b610586919061091a565b61059090866108b2565b61059a919061089f565b949350505050565b6000806105ad6101a4565b90508284106105d9576040516383cddbbb60e01b81526004810185905260248101849052604401610372565b83806105e685600161089f565b6105f0919061091a565b6105fa90836108b2565b610604919061089f565b9150505b92915050565b610616610684565b6001600160a01b03811661067b5760405162461bcd60e51b815260206004820152602660248201527f4f776e61626c653a206e6577206f776e657220697320746865207a65726f206160448201526564647265737360d01b6064820152608401610372565b6103c4816106de565b6000546001600160a01b031633146105025760405162461bcd60e51b815260206004820181905260248201527f4f776e61626c653a2063616c6c6572206973206e6f7420746865206f776e65726044820152606401610372565b600080546001600160a01b038381166001600160a01b0319831681178455604051919092169283917f8be0079c531659141344cd1fd0a4f28419497f9722a3daafe3b4186f6b6457e09190a35050565b60006020828403121561074057600080fd5b81356001600160a01b038116811461075757600080fd5b9392505050565b60006020828403121561077057600080fd5b5035919050565b6020808252825182820181905260009190848201906040850190845b818110156107af57835183529284019291840191600101610793565b50909695505050505050565b6000806000606084860312156107d057600080fd5b505081359360208301359350604090920135919050565b600080604083850312156107fa57600080fd5b50508035926020909101359150565b805169ffffffffffffffffffff8116811461045957600080fd5b600080600080600060a0868803121561083b57600080fd5b61084486610809565b945060208601519350604086015192506060860151915061086760808701610809565b90509295509295909350565b634e487b7160e01b600052603260045260246000fd5b634e487b7160e01b600052601160045260246000fd5b8082018082111561060857610608610889565b6000826108cf57634e487b7160e01b600052601260045260246000fd5b500690565b808202811582820484141761060857610608610889565b6000600182016108fd576108fd610889565b5060010190565b634e487b7160e01b600052604160045260246000fd5b818103818111156106085761060861088956fea264697066735822122066a139556181385ed60a617c025c90258d9d36455ffe30b573a7a901ae1ea11a64736f6c63430008120033",
  "linkReferences": {},
  "deployedLinkReferences": {}
}