{
  "_format": "hh-sol-artifact-1",
  "contractName": "GameCoinflip",
  "sourceName": "contracts/games/GameCoinflip.sol",
  "abi": [
    {
      "inputs": [
        {
          "internalType": "address",
          "name": "_usdt",
          "type": "address"
        },
        {
          "internalType": "address",
          "name": "_vault",
          "type": "address"
        },
        {
          "internalType": "address",
          "name": "_console",
          "type": "address"
        },
        {
          "internalType": "address",
          "name": "_house",
          "type": "address"
        },
        {
          "internalType": "address",
          "name": "_rng",
          "type": "address"
        },
        {
          "internalType": "uint256",
          "name": "_id",
          "type": "uint256"
        },
        {
          "internalType": "uint256",
          "name": "_numbersPerRoll",
          "type": "uint256"
        }
      ],
      "stateMutability": "nonpayable",
      "type": "constructor"
    },
    {
      "inputs": [
        {
          "internalType": "uint256",
          "name": "bet",
          "type": "uint256"
        }
      ],
      "name": "InvalidBet",
      "type": "error"
    },
    {
      "inputs": [
        {
          "internalType": "uint256",
          "name": "max",
          "type": "uint256"
        },
        {
          "internalType": "uint256",
          "name": "rolls",
          "type": "uint256"
        }
      ],
      "name": "InvalidRolls",
      "type": "error"
    },
    {
      "inputs": [
        {
          "internalType": "uint256",
          "name": "minRate",
          "type": "uint256"
        },
        {
          "internalType": "uint256",
          "name": "stake",
          "type": "uint256"
        }
      ],
      "name": "MinBet",
      "type": "error"
    },
    {
      "anonymous": false,
      "inputs": [
        {
          "indexed": true,
          "internalType": "uint256",
          "name": "betId",
          "type": "uint256"
        },
        {
          "indexed": false,
          "internalType": "uint256[]",
          "name": "_randomNumbers",
          "type": "uint256[]"
        },
        {
          "indexed": false,
          "internalType": "uint256[]",
          "name": "_rolls",
          "type": "uint256[]"
        },
        {
          "indexed": false,
          "internalType": "uint256",
          "name": "_bet",
          "type": "uint256"
        },
        {
          "indexed": false,
          "internalType": "uint256",
          "name": "_stake",
          "type": "uint256"
        },
        {
          "indexed": false,
          "internalType": "uint256",
          "name": "wins",
          "type": "uint256"
        },
        {
          "indexed": false,
          "internalType": "uint256",
          "name": "losses",
          "type": "uint256"
        },
        {
          "indexed": false,
          "internalType": "uint256",
          "name": "_payout",
          "type": "uint256"
        },
        {
          "indexed": true,
          "internalType": "address",
          "name": "_account",
          "type": "address"
        },
        {
          "indexed": true,
          "internalType": "uint256",
          "name": "_timestamp",
          "type": "uint256"
        }
      ],
      "name": "GameEnd",
      "type": "event"
    },
    {
      "anonymous": false,
      "inputs": [
        {
          "indexed": true,
          "internalType": "uint256",
          "name": "betId",
          "type": "uint256"
        },
        {
          "indexed": false,
          "internalType": "uint256",
          "name": "_bet",
          "type": "uint256"
        },
        {
          "indexed": false,
          "internalType": "uint256[50]",
          "name": "_data",
          "type": "uint256[50]"
        }
      ],
      "name": "GameStart",
      "type": "event"
    },
    {
      "anonymous": false,
      "inputs": [
        {
          "indexed": true,
          "internalType": "address",
          "name": "previousOwner",
          "type": "address"
        },
        {
          "indexed": true,
          "internalType": "address",
          "name": "newOwner",
          "type": "address"
        }
      ],
      "name": "OwnershipTransferred",
      "type": "event"
    },
    {
      "inputs": [],
      "name": "consoleInst",
      "outputs": [
        {
          "internalType": "contract IConsole",
          "name": "",
          "type": "address"
        }
      ],
      "stateMutability": "view",
      "type": "function"
    },
    {
      "inputs": [],
      "name": "getDate",
      "outputs": [
        {
          "internalType": "uint256",
          "name": "",
          "type": "uint256"
        }
      ],
      "stateMutability": "view",
      "type": "function"
    },
    {
      "inputs": [],
      "name": "getEdge",
      "outputs": [
        {
          "internalType": "uint256",
          "name": "",
          "type": "uint256"
        }
      ],
      "stateMutability": "view",
      "type": "function"
    },
    {
      "inputs": [],
      "name": "getId",
      "outputs": [
        {
          "internalType": "uint256",
          "name": "",
          "type": "uint256"
        }
      ],
      "stateMutability": "view",
      "type": "function"
    },
    {
      "inputs": [],
      "name": "getLive",
      "outputs": [
        {
          "internalType": "bool",
          "name": "",
          "type": "bool"
        }
      ],
      "stateMutability": "view",
      "type": "function"
    },
    {
      "inputs": [
        {
          "internalType": "uint256",
          "name": "",
          "type": "uint256"
        },
        {
          "internalType": "uint256[50]",
          "name": "",
          "type": "uint256[50]"
        }
      ],
      "name": "getMaxPayout",
      "outputs": [
        {
          "internalType": "uint256",
          "name": "",
          "type": "uint256"
        }
      ],
      "stateMutability": "view",
      "type": "function"
    },
    {
      "inputs": [],
      "name": "getName",
      "outputs": [
        {
          "internalType": "string",
          "name": "",
          "type": "string"
        }
      ],
      "stateMutability": "view",
      "type": "function"
    },
    {
      "inputs": [],
      "name": "house",
      "outputs": [
        {
          "internalType": "contract IHouse",
          "name": "",
          "type": "address"
        }
      ],
      "stateMutability": "view",
      "type": "function"
    },
    {
      "inputs": [],
      "name": "maxRoll",
      "outputs": [
        {
          "internalType": "uint256",
          "name": "",
          "type": "uint256"
        }
      ],
      "stateMutability": "view",
      "type": "function"
    },
    {
      "inputs": [],
      "name": "minBetRate",
      "outputs": [
        {
          "internalType": "uint256",
          "name": "",
          "type": "uint256"
        }
      ],
      "stateMutability": "view",
      "type": "function"
    },
    {
      "inputs": [],
      "name": "numbersPerRoll",
      "outputs": [
        {
          "internalType": "uint256",
          "name": "",
          "type": "uint256"
        }
      ],
      "stateMutability": "view",
      "type": "function"
    },
    {
      "inputs": [],
      "name": "owner",
      "outputs": [
        {
          "internalType": "address",
          "name": "",
          "type": "address"
        }
      ],
      "stateMutability": "view",
      "type": "function"
    },
    {
      "inputs": [
        {
          "internalType": "uint256",
          "name": "_rolls",
          "type": "uint256"
        },
        {
          "internalType": "uint256",
          "name": "_bet",
          "type": "uint256"
        },
        {
          "internalType": "uint256[50]",
          "name": "_data",
          "type": "uint256[50]"
        },
        {
          "internalType": "uint256",
          "name": "_stake",
          "type": "uint256"
        }
      ],
      "name": "play",
      "outputs": [],
      "stateMutability": "nonpayable",
      "type": "function"
    },
    {
      "inputs": [],
      "name": "renounceOwnership",
      "outputs": [],
      "stateMutability": "nonpayable",
      "type": "function"
    },
    {
      "inputs": [],
      "name": "rng",
      "outputs": [
        {
          "internalType": "contract IRNG",
          "name": "",
          "type": "address"
        }
      ],
      "stateMutability": "view",
      "type": "function"
    },
    {
      "inputs": [
        {
          "internalType": "address",
          "name": "_newConsole",
          "type": "address"
        }
      ],
      "name": "setConsoleInst",
      "outputs": [],
      "stateMutability": "nonpayable",
      "type": "function"
    },
    {
      "inputs": [
        {
          "internalType": "address",
          "name": "_newHouse",
          "type": "address"
        }
      ],
      "name": "setHouse",
      "outputs": [],
      "stateMutability": "nonpayable",
      "type": "function"
    },
    {
      "inputs": [
        {
          "internalType": "address",
          "name": "_newRNG",
          "type": "address"
        }
      ],
      "name": "setRNG",
      "outputs": [],
      "stateMutability": "nonpayable",
      "type": "function"
    },
    {
      "inputs": [
        {
          "internalType": "address",
          "name": "_newUSDT",
          "type": "address"
        }
      ],
      "name": "setUSDTToken",
      "outputs": [],
      "stateMutability": "nonpayable",
      "type": "function"
    },
    {
      "inputs": [
        {
          "internalType": "address",
          "name": "_newVault",
          "type": "address"
        }
      ],
      "name": "setUSDTVault",
      "outputs": [],
      "stateMutability": "nonpayable",
      "type": "function"
    },
    {
      "inputs": [
        {
          "internalType": "address",
          "name": "newOwner",
          "type": "address"
        }
      ],
      "name": "transferOwnership",
      "outputs": [],
      "stateMutability": "nonpayable",
      "type": "function"
    },
    {
      "inputs": [
        {
          "internalType": "uint256",
          "name": "_newValue",
          "type": "uint256"
        }
      ],
      "name": "updateMaxRoll",
      "outputs": [],
      "stateMutability": "nonpayable",
      "type": "function"
    },
    {
      "inputs": [
        {
          "internalType": "uint256",
          "name": "_newValue",
          "type": "uint256"
        }
      ],
      "name": "updateMinBetRate",
      "outputs": [],
      "stateMutability": "nonpayable",
      "type": "function"
    },
    {
      "inputs": [],
      "name": "usdtToken",
      "outputs": [
        {
          "internalType": "contract IERC20BackwardsCompatible",
          "name": "",
          "type": "address"
        }
      ],
      "stateMutability": "view",
      "type": "function"
    },
    {
      "inputs": [],
      "name": "usdtVault",
      "outputs": [
        {
          "internalType": "contract IUSDTVault",
          "name": "",
          "type": "address"
        }
      ],
      "stateMutability": "view",
      "type": "function"
    }
  ],
  "bytecode": "0x60806040523480156200001157600080fd5b50604051620019f2380380620019f283398101604081905262000034916200012f565b868686868686866200004633620000c2565b600180546001600160a01b03199081166001600160a01b03998a16178255600280548216988a169890981790975560038054881696891696909617909555600480548716948816949094179093556005805490951691909516179092556006929092556008556007555050600060095550620001b29350505050565b600080546001600160a01b038381166001600160a01b0319831681178455604051919092169283917f8be0079c531659141344cd1fd0a4f28419497f9722a3daafe3b4186f6b6457e09190a35050565b80516001600160a01b03811681146200012a57600080fd5b919050565b600080600080600080600060e0888a0312156200014b57600080fd5b620001568862000112565b9650620001666020890162000112565b9550620001766040890162000112565b9450620001866060890162000112565b9350620001966080890162000112565b925060a0880151915060c0880151905092959891949750929550565b61183080620001c26000396000f3fe608060405234801561001057600080fd5b50600436106101735760003560e01c80638d794ed2116100de578063ac58fb8911610097578063e348273311610071578063e3482733146102fe578063e8faf28014610306578063f2fde38b14610319578063ff9b3acf1461032c57600080fd5b8063ac58fb89146102c5578063c086a42f146102d8578063d605787b146102eb57600080fd5b80638d794ed2146102475780638da5cb5b1461027257806394dfeb3114610283578063a0e562a014610296578063a8bb89e41461029f578063a98ad46c146102b257600080fd5b8063430fe9c111610130578063430fe9c1146102005780634ccee6ea146102085780635d1ca6311461021157806366e226bd14610219578063715018a61461022c5780637f2a8a801461023457600080fd5b806305592fa21461017857806317d7de7c1461018d578063243e5775146101ab57806328d0ab4a146101c25780632ef5c6d4146101d55780633b84edbd146101ed575b600080fd5b61018b610186366004610fd2565b61033f565b005b610195610376565b6040516101a2919061100f565b60405180910390f35b6101b460075481565b6040519081526020016101a2565b6101b46101d036600461114b565b610400565b6101dd6104bd565b60405190151581526020016101a2565b61018b6101fb36600461118e565b610546565b6101b461059d565b6101b460085481565b6006546101b4565b61018b61022736600461118e565b610626565b61018b61067d565b61018b61024236600461118e565b610691565b60035461025a906001600160a01b031681565b6040516001600160a01b0390911681526020016101a2565b6000546001600160a01b031661025a565b61018b610291366004610fd2565b6106e8565b6101b460095481565b61018b6102ad36600461118e565b610716565b60015461025a906001600160a01b031681565b61018b6102d336600461118e565b61076d565b61018b6102e63660046111b2565b6107c4565b60055461025a906001600160a01b031681565b6101b4610b65565b60025461025a906001600160a01b031681565b61018b61032736600461118e565b610bee565b60045461025a906001600160a01b031681565b610347610c67565b80600754036103715760405162461bcd60e51b8152600401610368906111f2565b60405180910390fd5b600755565b6003546006546040516328bddef360e21b81526060926000926001600160a01b039091169163a2f77bcc916103b19160040190815260200190565b600060405180830381865afa1580156103ce573d6000803e3d6000fd5b505050506040513d6000823e601f3d908101601f191682016040526103f69190810190611237565b60a0015192915050565b6003546006546040516328bddef360e21b815260009283926001600160a01b039091169163a2f77bcc9161043a9160040190815260200190565b600060405180830381865afa158015610457573d6000803e3d6000fd5b505050506040513d6000823e601f3d908101601f1916820160405261047f9190810190611237565b9050603269d3c21bcecceda10000008260400151606461049f9190611350565b6104a99190611363565b6104b3919061137a565b9150505b92915050565b6003546006546040516328bddef360e21b815260009283926001600160a01b039091169163a2f77bcc916104f79160040190815260200190565b600060405180830381865afa158015610514573d6000803e3d6000fd5b505050506040513d6000823e601f3d908101601f1916820160405261053c9190810190611237565b6020015192915050565b61054e610c67565b6005546001600160a01b0380831691160361057b5760405162461bcd60e51b8152600401610368906111f2565b600580546001600160a01b0319166001600160a01b0392909216919091179055565b6003546006546040516328bddef360e21b815260009283926001600160a01b039091169163a2f77bcc916105d79160040190815260200190565b600060405180830381865afa1580156105f4573d6000803e3d6000fd5b505050506040513d6000823e601f3d908101601f1916820160405261061c9190810190611237565b6060015192915050565b61062e610c67565b6001546001600160a01b0380831691160361065b5760405162461bcd60e51b8152600401610368906111f2565b600180546001600160a01b0319166001600160a01b0392909216919091179055565b610685610c67565b61068f6000610cc1565b565b610699610c67565b6004546001600160a01b038083169116036106c65760405162461bcd60e51b8152600401610368906111f2565b600480546001600160a01b0319166001600160a01b0392909216919091179055565b6106f0610c67565b80600954036107115760405162461bcd60e51b8152600401610368906111f2565b600955565b61071e610c67565b6003546001600160a01b0380831691160361074b5760405162461bcd60e51b8152600401610368906111f2565b600380546001600160a01b0319166001600160a01b0392909216919091179055565b610775610c67565b6002546001600160a01b038083169116036107a25760405162461bcd60e51b8152600401610368906111f2565b600280546001600160a01b0319166001600160a01b0392909216919091179055565b60008060006007541180156107da575060075486115b15610806576007546040516358eb123160e11b8152600481019190915260248101879052604401610368565b6000831161084e5760405162461bcd60e51b8152602060048201526015602482015274506c656173652062657420736f6d6520636f696e7360581b6044820152606401610368565b600954600160009054906101000a90046001600160a01b03166001600160a01b031663313ce5676040518163ffffffff1660e01b8152600401602060405180830381865afa1580156108a4573d6000803e3d6000fd5b505050506040513d601f19601f820116820180604052508101906108c8919061139c565b6108d390600a6114a3565b6108e585670de0b6b3a7640000611363565b6108ef919061137a565b101561091c57600954604051635b3a28c960e01b8152600481019190915260248101849052604401610368565b6004546006546001600160a01b039091169063b7e4c354903390898989896109448383610400565b6040518863ffffffff1660e01b815260040161096697969594939291906114db565b60408051808303816000875af1158015610984573d6000803e3d6000fd5b505050506040513d601f19601f820116820180604052508101906109a89190611525565b6005546008549294509092506000916001600160a01b03909116906347ec651b906109d3908a611363565b6040518263ffffffff1660e01b81526004016109f191815260200190565b6000604051808303816000875af1158015610a10573d6000803e3d6000fd5b505050506040513d6000823e601f3d908101601f19168201604052610a389190810190611549565b90506000610a468483610d11565b600480546006546040516301270b4760e11b81529283018890523360248401526044830152606482018390529192506001600160a01b039091169063024e168e906084016020604051808303816000875af1158015610aa9573d6000803e3d6000fd5b505050506040513d601f19601f82011682018060405250810190610acd91906115ef565b506002546001600160a01b031663baade7bc3383610aeb898d611363565b610af59088611350565b6040516001600160e01b031960e086901b1681526001600160a01b03909316600484015260248301919091526044820152606401600060405180830381600087803b158015610b4357600080fd5b505af1158015610b57573d6000803e3d6000fd5b505050505050505050505050565b6003546006546040516328bddef360e21b815260009283926001600160a01b039091169163a2f77bcc91610b9f9160040190815260200190565b600060405180830381865afa158015610bbc573d6000803e3d6000fd5b505050506040513d6000823e601f3d908101601f19168201604052610be49190810190611237565b6040015192915050565b610bf6610c67565b6001600160a01b038116610c5b5760405162461bcd60e51b815260206004820152602660248201527f4f776e61626c653a206e6577206f776e657220697320746865207a65726f206160448201526564647265737360d01b6064820152608401610368565b610c6481610cc1565b50565b6000546001600160a01b0316331461068f5760405162461bcd60e51b815260206004820181905260248201527f4f776e61626c653a2063616c6c6572206973206e6f7420746865206f776e65726044820152606401610368565b600080546001600160a01b038381166001600160a01b0319831681178455604051919092169283917f8be0079c531659141344cd1fd0a4f28419497f9722a3daafe3b4186f6b6457e09190a35050565b6004805460405163061e494f60e01b815291820184905260009182916001600160a01b03169063061e494f906024016107a060405180830381865afa158015610d5e573d6000803e3d6000fd5b505050506040513d601f19601f82011682018060405250810190610d829190611650565b9050600081608001519050600080836060015167ffffffffffffffff811115610dad57610dad611042565b604051908082528060200260200182016040528015610dd6578160200160208202803683370190505b509050867f3051e7eab994ac5edefde9e7f592a4687f82dae97da5ee4aaf923178b375c97184866101400151604051610e109291906116ff565b60405180910390a26000610e2984866101400151610400565b905060008060005b8760600151811015610f6b576005548a516000916001600160a01b03169063b1fb60d7908d9085908110610e6757610e67611714565b60209081029190910101516040516001600160e01b031960e084901b16815260048101919091526001602482015260026044820152606401602060405180830381865afa158015610ebc573d6000803e3d6000fd5b505050506040513d601f19601f82011682018060405250810190610ee0919061172a565b9050878103610f2c5769d3c21bcecceda1000000858a60a00151610f049190611363565b610f0e919061137a565b610f189088611743565b965083610f2481611756565b945050610f3a565b82610f3681611756565b9350505b80868381518110610f4d57610f4d611714565b60209081029190910101525080610f6381611756565b915050610e31565b50428761016001516001600160a01b03168b7f0eb897db80d261cd46c9c9992fa34a6fcc33f3c5d1f21489706f3f5ebc84a0768c888b8d60a0015189898e604051610fbc97969594939291906117aa565b60405180910390a4509298975050505050505050565b600060208284031215610fe457600080fd5b5035919050565b60005b83811015611006578181015183820152602001610fee565b50506000910152565b602081526000825180602084015261102e816040850160208701610feb565b601f01601f19169190910160400192915050565b634e487b7160e01b600052604160045260246000fd5b60405160c0810167ffffffffffffffff8111828210171561107b5761107b611042565b60405290565b604051610180810167ffffffffffffffff8111828210171561107b5761107b611042565b604051610640810167ffffffffffffffff8111828210171561107b5761107b611042565b604051601f8201601f1916810167ffffffffffffffff811182821017156110f2576110f2611042565b604052919050565b600082601f83011261110b57600080fd5b6111136110a5565b8061064084018581111561112657600080fd5b845b81811015611140578035845260209384019301611128565b509095945050505050565b600080610660838503121561115f57600080fd5b8235915061117084602085016110fa565b90509250929050565b6001600160a01b0381168114610c6457600080fd5b6000602082840312156111a057600080fd5b81356111ab81611179565b9392505050565b6000806000806106a085870312156111c957600080fd5b84359350602085013592506111e186604087016110fa565b939692955092936106800135925050565b6020808252600b908201526a105b1c9958591e4814d95d60aa1b604082015260600190565b8051801515811461122757600080fd5b919050565b805161122781611179565b6000602080838503121561124a57600080fd5b825167ffffffffffffffff8082111561126257600080fd5b9084019060c0828703121561127657600080fd5b61127e611058565b8251815261128d848401611217565b84820152604083015160408201526060830151606082015260808301516112b381611179565b608082015260a0830151828111156112ca57600080fd5b80840193505086601f8401126112df57600080fd5b8251828111156112f1576112f1611042565b611303601f8201601f191686016110c9565b9250808352878582860101111561131957600080fd5b61132881868501878701610feb565b5060a081019190915295945050505050565b634e487b7160e01b600052601160045260246000fd5b818103818111156104b7576104b761133a565b80820281158282048414176104b7576104b761133a565b60008261139757634e487b7160e01b600052601260045260246000fd5b500490565b6000602082840312156113ae57600080fd5b815160ff811681146111ab57600080fd5b600181815b808511156113fa5781600019048211156113e0576113e061133a565b808516156113ed57918102915b93841c93908002906113c4565b509250929050565b600082611411575060016104b7565b8161141e575060006104b7565b8160018114611434576002811461143e5761145a565b60019150506104b7565b60ff84111561144f5761144f61133a565b50506001821b6104b7565b5060208310610133831016604e8410600b841016171561147d575081810a6104b7565b61148783836113bf565b806000190482111561149b5761149b61133a565b029392505050565b60006111ab60ff841683611402565b8060005b60328110156114d55781518452602093840193909101906001016114b6565b50505050565b6001600160a01b0388168152602081018790526040810186905260608101859052610700810161150e60808301866114b2565b6106c08201939093526106e0015295945050505050565b6000806040838503121561153857600080fd5b505080516020909101519092909150565b6000602080838503121561155c57600080fd5b825167ffffffffffffffff8082111561157457600080fd5b818501915085601f83011261158857600080fd5b81518181111561159a5761159a611042565b8060051b91506115ab8483016110c9565b81815291830184019184810190888411156115c557600080fd5b938501935b838510156115e3578451825293850193908501906115ca565b98975050505050505050565b60006020828403121561160157600080fd5b6111ab82611217565b600082601f83011261161b57600080fd5b6116236110a5565b8061064084018581111561163657600080fd5b845b81811015611140578051845260209384019301611638565b60006107a0828403121561166357600080fd5b61166b611081565b825181526020830151602082015260408301516040820152606083015160608201526080830151608082015260a083015160a082015260c083015160c08201526116b760e08401611217565b60e0820152610100838101519082015261012080840151908201526101406116e18582860161160a565b908201526116f2610780840161122c565b6101608201529392505050565b82815261066081016111ab60208301846114b2565b634e487b7160e01b600052603260045260246000fd5b60006020828403121561173c57600080fd5b5051919050565b808201808211156104b7576104b761133a565b6000600182016117685761176861133a565b5060010190565b600081518084526020808501945080840160005b8381101561179f57815187529582019590820190600101611783565b509495945050505050565b60e0815260006117bd60e083018a61176f565b82810360208401526117cf818a61176f565b604084019890985250506060810194909452608084019290925260a083015260c0909101529291505056fea2646970667358221220083f010bccf22d6bf66df63dfcb7ca469bc66dac424a0383a4abfa26e651225964736f6c63430008120033",
  "linkReferences": {},
  "deployedLinkReferences": {}
}