{
  "_format": "hh-sol-artifact-1",
  "contractName": "Console",
  "sourceName": "contracts/Console.sol",
  "abi": [
    {
      "inputs": [],
      "stateMutability": "nonpayable",
      "type": "constructor"
    },
    {
      "inputs": [
        {
          "internalType": "uint256",
          "name": "_id",
          "type": "uint256"
        }
      ],
      "name": "GameNotFound",
      "type": "error"
    },
    {
      "anonymous": false,
      "inputs": [
        {
          "indexed": true,
          "internalType": "address",
          "name": "previousOwner",
          "type": "address"
        },
        {
          "indexed": true,
          "internalType": "address",
          "name": "newOwner",
          "type": "address"
        }
      ],
      "name": "OwnershipTransferred",
      "type": "event"
    },
    {
      "inputs": [
        {
          "internalType": "bool",
          "name": "_live",
          "type": "bool"
        },
        {
          "internalType": "string",
          "name": "_name",
          "type": "string"
        },
        {
          "internalType": "uint256",
          "name": "_edge",
          "type": "uint256"
        },
        {
          "internalType": "address",
          "name": "_impl",
          "type": "address"
        }
      ],
      "name": "addGame",
      "outputs": [],
      "stateMutability": "nonpayable",
      "type": "function"
    },
    {
      "inputs": [
        {
          "internalType": "uint256",
          "name": "_id",
          "type": "uint256"
        },
        {
          "internalType": "bool",
          "name": "_live",
          "type": "bool"
        },
        {
          "internalType": "string",
          "name": "_name",
          "type": "string"
        },
        {
          "internalType": "uint256",
          "name": "_edge",
          "type": "uint256"
        },
        {
          "internalType": "address",
          "name": "_impl",
          "type": "address"
        }
      ],
      "name": "editGame",
      "outputs": [],
      "stateMutability": "nonpayable",
      "type": "function"
    },
    {
      "inputs": [
        {
          "internalType": "uint256",
          "name": "",
          "type": "uint256"
        }
      ],
      "name": "games",
      "outputs": [
        {
          "internalType": "uint256",
          "name": "id",
          "type": "uint256"
        },
        {
          "internalType": "bool",
          "name": "live",
          "type": "bool"
        },
        {
          "internalType": "uint256",
          "name": "edge",
          "type": "uint256"
        },
        {
          "internalType": "uint256",
          "name": "date",
          "type": "uint256"
        },
        {
          "internalType": "address",
          "name": "impl",
          "type": "address"
        },
        {
          "internalType": "string",
          "name": "name",
          "type": "string"
        }
      ],
      "stateMutability": "view",
      "type": "function"
    },
    {
      "inputs": [
        {
          "internalType": "uint256",
          "name": "_id",
          "type": "uint256"
        }
      ],
      "name": "getGame",
      "outputs": [
        {
          "components": [
            {
              "internalType": "uint256",
              "name": "id",
              "type": "uint256"
            },
            {
              "internalType": "bool",
              "name": "live",
              "type": "bool"
            },
            {
              "internalType": "uint256",
              "name": "edge",
              "type": "uint256"
            },
            {
              "internalType": "uint256",
              "name": "date",
              "type": "uint256"
            },
            {
              "internalType": "address",
              "name": "impl",
              "type": "address"
            },
            {
              "internalType": "string",
              "name": "name",
              "type": "string"
            }
          ],
          "internalType": "struct Types.Game",
          "name": "",
          "type": "tuple"
        }
      ],
      "stateMutability": "view",
      "type": "function"
    },
    {
      "inputs": [
        {
          "internalType": "address",
          "name": "_impl",
          "type": "address"
        }
      ],
      "name": "getGameByImpl",
      "outputs": [
        {
          "components": [
            {
              "internalType": "uint256",
              "name": "id",
              "type": "uint256"
            },
            {
              "internalType": "bool",
              "name": "live",
              "type": "bool"
            },
            {
              "internalType": "uint256",
              "name": "edge",
              "type": "uint256"
            },
            {
              "internalType": "uint256",
              "name": "date",
              "type": "uint256"
            },
            {
              "internalType": "address",
              "name": "impl",
              "type": "address"
            },
            {
              "internalType": "string",
              "name": "name",
              "type": "string"
            }
          ],
          "internalType": "struct Types.Game",
          "name": "",
          "type": "tuple"
        }
      ],
      "stateMutability": "view",
      "type": "function"
    },
    {
      "inputs": [],
      "name": "getId",
      "outputs": [
        {
          "internalType": "uint256",
          "name": "",
          "type": "uint256"
        }
      ],
      "stateMutability": "view",
      "type": "function"
    },
    {
      "inputs": [],
      "name": "getLiveGames",
      "outputs": [
        {
          "components": [
            {
              "internalType": "uint256",
              "name": "id",
              "type": "uint256"
            },
            {
              "internalType": "bool",
              "name": "live",
              "type": "bool"
            },
            {
              "internalType": "uint256",
              "name": "edge",
              "type": "uint256"
            },
            {
              "internalType": "uint256",
              "name": "date",
              "type": "uint256"
            },
            {
              "internalType": "address",
              "name": "impl",
              "type": "address"
            },
            {
              "internalType": "string",
              "name": "name",
              "type": "string"
            }
          ],
          "internalType": "struct Types.Game[]",
          "name": "",
          "type": "tuple[]"
        }
      ],
      "stateMutability": "view",
      "type": "function"
    },
    {
      "inputs": [],
      "name": "id",
      "outputs": [
        {
          "internalType": "uint256",
          "name": "",
          "type": "uint256"
        }
      ],
      "stateMutability": "view",
      "type": "function"
    },
    {
      "inputs": [
        {
          "internalType": "address",
          "name": "",
          "type": "address"
        }
      ],
      "name": "impls",
      "outputs": [
        {
          "internalType": "uint256",
          "name": "",
          "type": "uint256"
        }
      ],
      "stateMutability": "view",
      "type": "function"
    },
    {
      "inputs": [],
      "name": "owner",
      "outputs": [
        {
          "internalType": "address",
          "name": "",
          "type": "address"
        }
      ],
      "stateMutability": "view",
      "type": "function"
    },
    {
      "inputs": [],
      "name": "renounceOwnership",
      "outputs": [],
      "stateMutability": "nonpayable",
      "type": "function"
    },
    {
      "inputs": [
        {
          "internalType": "address",
          "name": "newOwner",
          "type": "address"
        }
      ],
      "name": "transferOwnership",
      "outputs": [],
      "stateMutability": "nonpayable",
      "type": "function"
    }
  ],
  "bytecode": "0x608060405234801561001057600080fd5b5061001a3361001f565b61006f565b600080546001600160a01b038381166001600160a01b0319831681178455604051919092169283917f8be0079c531659141344cd1fd0a4f28419497f9722a3daafe3b4186f6b6457e09190a35050565b610dd58061007e6000396000f3fe608060405234801561001057600080fd5b50600436106100b45760003560e01c80638da5cb5b116100715780638da5cb5b1461014b578063a2f77bcc14610166578063af640d0f14610179578063b1a557d914610182578063c69e397114610195578063f2fde38b146101b557600080fd5b8063117a5b90146100b95780632701998e146100e75780635771c089146100fc5780635d1ca63114610111578063715018a61461012357806378f0bb281461012b575b600080fd5b6100cc6100c73660046108da565b6101c8565b6040516100de96959493929190610939565b60405180910390f35b6100ef610296565b6040516100de91906109d9565b61010f61010a366004610b0a565b6103e5565b005b6003545b6040519081526020016100de565b61010f6104f2565b61013e610139366004610b7c565b610506565b6040516100de9190610b9e565b6000546040516001600160a01b0390911681526020016100de565b61013e6101743660046108da565b610615565b61011560035481565b61010f610190366004610bb1565b61068c565b6101156101a3366004610b7c565b60026020526000908152604090205481565b61010f6101c3366004610b7c565b610776565b600160208190526000918252604090912080549181015460028201546003830154600484015460058501805460ff90951695939492936001600160a01b039092169261021390610c19565b80601f016020809104026020016040519081016040528092919081815260200182805461023f90610c19565b801561028c5780601f106102615761010080835404028352916020019161028c565b820191906000526020600020905b81548152906001019060200180831161026f57829003601f168201915b5050505050905086565b6060806000805b6003548110156103dd576000818152600160208181526040808420815160c081018352815481529381015460ff161515928401929092526002820154908301526003810154606083015260048101546001600160a01b0316608083015260058101805460a08401919061030f90610c19565b80601f016020809104026020016040519081016040528092919081815260200182805461033b90610c19565b80156103885780601f1061035d57610100808354040283529160200191610388565b820191906000526020600020905b81548152906001019060200180831161036b57829003601f168201915b50505050508152505090508060200151156103ca57808484815181106103b0576103b0610c53565b602002602001018190525082806103c690610c69565b9350505b50806103d581610c69565b91505061029d565b509092915050565b6103ed6107ef565b60008581526001602052604081206003015490036104265760405163d13b267760e01b8152600481018690526024015b60405180910390fd5b6040805160c0810182526000878152600160208181528483208054855289151582860190815295850188815242606087019081526001600160a01b038981166080890190815260a089018d8152978f905294869052875184559751948301805460ff19169515159590951790945551600282015591516003830155516004820180546001600160a01b0319169190951617909355519091829160058201906104ce9082610cdf565b505050506001600160a01b0316600090815260026020526040902093909355505050565b6104fa6107ef565b6105046000610849565b565b61050e610899565b6001600160a01b038083166000908152600260208181526040808420548452600180835293819020815160c081018352815481529481015460ff161515928501929092529181015491830191909152600381015460608301526004810154909216608082015260058201805491929160a08401919061058c90610c19565b80601f01602080910402602001604051908101604052809291908181526020018280546105b890610c19565b80156106055780601f106105da57610100808354040283529160200191610605565b820191906000526020600020905b8154815290600101906020018083116105e857829003601f168201915b5050505050815250509050919050565b61061d610899565b600082815260016020818152604092839020835160c081018552815481529281015460ff161515918301919091526002810154928201929092526003820154606082015260048201546001600160a01b0316608082015260058201805491929160a08401919061058c90610c19565b6106946107ef565b6040805160c08101825260038054808352871515602080850191825284860188815242606087019081526001600160a01b038981166080890190815260a089018d8152600097885260019586905299909620885181559451938501805460ff19169415159490941790935590516002840155519382019390935590516004820180546001600160a01b0319169190931617909155915190918291600582019061073d9082610cdf565b5050600380546001600160a01b038516600090815260026020526040812082905590925061076a83610c69565b91905055505050505050565b61077e6107ef565b6001600160a01b0381166107e35760405162461bcd60e51b815260206004820152602660248201527f4f776e61626c653a206e6577206f776e657220697320746865207a65726f206160448201526564647265737360d01b606482015260840161041d565b6107ec81610849565b50565b6000546001600160a01b031633146105045760405162461bcd60e51b815260206004820181905260248201527f4f776e61626c653a2063616c6c6572206973206e6f7420746865206f776e6572604482015260640161041d565b600080546001600160a01b038381166001600160a01b0319831681178455604051919092169283917f8be0079c531659141344cd1fd0a4f28419497f9722a3daafe3b4186f6b6457e09190a35050565b6040518060c0016040528060008152602001600015158152602001600081526020016000815260200160006001600160a01b03168152602001606081525090565b6000602082840312156108ec57600080fd5b5035919050565b6000815180845260005b81811015610919576020818501810151868301820152016108fd565b506000602082860101526020601f19601f83011685010191505092915050565b868152851515602082015284604082015283606082015260018060a01b038316608082015260c060a0820152600061097460c08301846108f3565b98975050505050505050565b80518252602081015115156020830152604081015160408301526060810151606083015260018060a01b036080820151166080830152600060a082015160c060a08501526109d160c08501826108f3565b949350505050565b6000602080830181845280855180835260408601915060408160051b870101925083870160005b82811015610a2e57603f19888603018452610a1c858351610980565b94509285019290850190600101610a00565b5092979650505050505050565b80358015158114610a4b57600080fd5b919050565b634e487b7160e01b600052604160045260246000fd5b600082601f830112610a7757600080fd5b813567ffffffffffffffff80821115610a9257610a92610a50565b604051601f8301601f19908116603f01168101908282118183101715610aba57610aba610a50565b81604052838152866020858801011115610ad357600080fd5b836020870160208301376000602085830101528094505050505092915050565b80356001600160a01b0381168114610a4b57600080fd5b600080600080600060a08688031215610b2257600080fd5b85359450610b3260208701610a3b565b9350604086013567ffffffffffffffff811115610b4e57600080fd5b610b5a88828901610a66565b93505060608601359150610b7060808701610af3565b90509295509295909350565b600060208284031215610b8e57600080fd5b610b9782610af3565b9392505050565b602081526000610b976020830184610980565b60008060008060808587031215610bc757600080fd5b610bd085610a3b565b9350602085013567ffffffffffffffff811115610bec57600080fd5b610bf887828801610a66565b93505060408501359150610c0e60608601610af3565b905092959194509250565b600181811c90821680610c2d57607f821691505b602082108103610c4d57634e487b7160e01b600052602260045260246000fd5b50919050565b634e487b7160e01b600052603260045260246000fd5b600060018201610c8957634e487b7160e01b600052601160045260246000fd5b5060010190565b601f821115610cda57600081815260208120601f850160051c81016020861015610cb75750805b601f850160051c820191505b81811015610cd657828155600101610cc3565b5050505b505050565b815167ffffffffffffffff811115610cf957610cf9610a50565b610d0d81610d078454610c19565b84610c90565b602080601f831160018114610d425760008415610d2a5750858301515b600019600386901b1c1916600185901b178555610cd6565b600085815260208120601f198616915b82811015610d7157888601518255948401946001909101908401610d52565b5085821015610d8f5787850151600019600388901b60f8161c191681555b5050505050600190811b0190555056fea2646970667358221220acf4d99050a33a5cd430e754abb9ba79eb66f0b596c42e79955431bcc19beff064736f6c63430008120033",
  "linkReferences": {},
  "deployedLinkReferences": {}
}