{
  "_format": "hh-sol-artifact-1",
  "contractName": "USDTVault",
  "sourceName": "contracts/USDTVault.sol",
  "abi": [
    {
      "inputs": [
        {
          "internalType": "address",
          "name": "_usdt",
          "type": "address"
        }
      ],
      "stateMutability": "nonpayable",
      "type": "constructor"
    },
    {
      "anonymous": false,
      "inputs": [
        {
          "indexed": true,
          "internalType": "address",
          "name": "previousOwner",
          "type": "address"
        },
        {
          "indexed": true,
          "internalType": "address",
          "name": "newOwner",
          "type": "address"
        }
      ],
      "name": "OwnershipTransferred",
      "type": "event"
    },
    {
      "inputs": [
        {
          "internalType": "address",
          "name": "_game",
          "type": "address"
        }
      ],
      "name": "addToGameContractList",
      "outputs": [],
      "stateMutability": "nonpayable",
      "type": "function"
    },
    {
      "inputs": [
        {
          "internalType": "address",
          "name": "_player",
          "type": "address"
        },
        {
          "internalType": "uint256",
          "name": "_prize",
          "type": "uint256"
        },
        {
          "internalType": "uint256",
          "name": "_fee",
          "type": "uint256"
        }
      ],
      "name": "finalizeGame",
      "outputs": [],
      "stateMutability": "nonpayable",
      "type": "function"
    },
    {
      "inputs": [],
      "name": "owner",
      "outputs": [
        {
          "internalType": "address",
          "name": "",
          "type": "address"
        }
      ],
      "stateMutability": "view",
      "type": "function"
    },
    {
      "inputs": [
        {
          "internalType": "address",
          "name": "_game",
          "type": "address"
        }
      ],
      "name": "removeFromGameContractList",
      "outputs": [],
      "stateMutability": "nonpayable",
      "type": "function"
    },
    {
      "inputs": [],
      "name": "renounceOwnership",
      "outputs": [],
      "stateMutability": "nonpayable",
      "type": "function"
    },
    {
      "inputs": [
        {
          "internalType": "address",
          "name": "newTreasury",
          "type": "address"
        }
      ],
      "name": "setTreasuryWallet",
      "outputs": [],
      "stateMutability": "nonpayable",
      "type": "function"
    },
    {
      "inputs": [
        {
          "internalType": "address",
          "name": "_newUSDT",
          "type": "address"
        }
      ],
      "name": "setUSDTToken",
      "outputs": [],
      "stateMutability": "nonpayable",
      "type": "function"
    },
    {
      "inputs": [
        {
          "internalType": "address",
          "name": "newOwner",
          "type": "address"
        }
      ],
      "name": "transferOwnership",
      "outputs": [],
      "stateMutability": "nonpayable",
      "type": "function"
    },
    {
      "inputs": [],
      "name": "treasuryWallet",
      "outputs": [
        {
          "internalType": "address",
          "name": "",
          "type": "address"
        }
      ],
      "stateMutability": "view",
      "type": "function"
    },
    {
      "inputs": [],
      "name": "usdtToken",
      "outputs": [
        {
          "internalType": "contract IERC20",
          "name": "",
          "type": "address"
        }
      ],
      "stateMutability": "view",
      "type": "function"
    },
    {
      "inputs": [
        {
          "internalType": "uint256",
          "name": "_amount",
          "type": "uint256"
        }
      ],
      "name": "withdrawToTreasury",
      "outputs": [],
      "stateMutability": "nonpayable",
      "type": "function"
    }
  ],
  "bytecode": "0x608060405234801561001057600080fd5b5060405161081438038061081483398101604081905261002f916100ca565b6100383361007a565b600180546001600160a01b039092166001600160a01b0319928316179055600280549091167392208bff3a44d2b0978c963bba07879467000ae21790556100fa565b600080546001600160a01b038381166001600160a01b0319831681178455604051919092169283917f8be0079c531659141344cd1fd0a4f28419497f9722a3daafe3b4186f6b6457e09190a35050565b6000602082840312156100dc57600080fd5b81516001600160a01b03811681146100f357600080fd5b9392505050565b61070b806101096000396000f3fe608060405234801561001057600080fd5b50600436106100a95760003560e01c8063a8602fea11610071578063a8602fea1461011e578063a98ad46c14610131578063abae70c514610144578063baade7bc14610157578063c5e48ca21461016a578063f2fde38b1461017d57600080fd5b80631e1d55dd146100ae5780634626402b146100c357806366e226bd146100f2578063715018a6146101055780638da5cb5b1461010d575b600080fd5b6100c16100bc36600461062c565b610190565b005b6002546100d6906001600160a01b031681565b6040516001600160a01b03909116815260200160405180910390f35b6100c161010036600461062c565b6101bc565b6100c16101e6565b6000546001600160a01b03166100d6565b6100c161012c36600461062c565b6101fa565b6001546100d6906001600160a01b031681565b6100c161015236600461064e565b610274565b6100c1610165366004610667565b61036d565b6100c161017836600461062c565b6104c4565b6100c161018b36600461062c565b6104ed565b610198610566565b6001600160a01b03166000908152600360205260409020805460ff19166001179055565b6101c4610566565b600180546001600160a01b0319166001600160a01b0392909216919091179055565b6101ee610566565b6101f860006105c0565b565b610202610566565b6002546001600160a01b038083169116036102525760405162461bcd60e51b815260206004820152600b60248201526a105b1c9958591e4814d95d60aa1b60448201526064015b60405180910390fd5b600280546001600160a01b0319166001600160a01b0392909216919091179055565b61027c610566565b6001546040516370a0823160e01b81523060048201526000916001600160a01b0316906370a0823190602401602060405180830381865afa1580156102c5573d6000803e3d6000fd5b505050506040513d601f19601f820116820180604052508101906102e9919061069a565b90508181106103695760015460405163a9059cbb60e01b8152336004820152602481018490526001600160a01b039091169063a9059cbb906044016020604051808303816000875af1158015610343573d6000803e3d6000fd5b505050506040513d601f19601f8201168201806040525081019061036791906106b3565b505b5050565b3360009081526003602052604090205460ff166103c05760405162461bcd60e51b8152602060048201526011602482015270139bdd0811d85b594810dbdb9d1c9858dd607a1b6044820152606401610249565b811561043f5760015460405163a9059cbb60e01b81526001600160a01b038581166004830152602482018590529091169063a9059cbb906044016020604051808303816000875af1158015610419573d6000803e3d6000fd5b505050506040513d601f19601f8201168201806040525081019061043d91906106b3565b505b80156103675760015460025460405163a9059cbb60e01b81526001600160a01b0391821660048201526024810184905291169063a9059cbb906044016020604051808303816000875af115801561049a573d6000803e3d6000fd5b505050506040513d601f19601f820116820180604052508101906104be91906106b3565b50505050565b6104cc610566565b6001600160a01b03166000908152600360205260409020805460ff19169055565b6104f5610566565b6001600160a01b03811661055a5760405162461bcd60e51b815260206004820152602660248201527f4f776e61626c653a206e6577206f776e657220697320746865207a65726f206160448201526564647265737360d01b6064820152608401610249565b610563816105c0565b50565b6000546001600160a01b031633146101f85760405162461bcd60e51b815260206004820181905260248201527f4f776e61626c653a2063616c6c6572206973206e6f7420746865206f776e65726044820152606401610249565b600080546001600160a01b038381166001600160a01b0319831681178455604051919092169283917f8be0079c531659141344cd1fd0a4f28419497f9722a3daafe3b4186f6b6457e09190a35050565b80356001600160a01b038116811461062757600080fd5b919050565b60006020828403121561063e57600080fd5b61064782610610565b9392505050565b60006020828403121561066057600080fd5b5035919050565b60008060006060848603121561067c57600080fd5b61068584610610565b95602085013595506040909401359392505050565b6000602082840312156106ac57600080fd5b5051919050565b6000602082840312156106c557600080fd5b8151801515811461064757600080fdfea264697066735822122094461f122dcff4b23b38b5e4228964f344192d10770be150cbb117ccec3ea09064736f6c63430008120033",
  "linkReferences": {},
  "deployedLinkReferences": {}
}