{
  "_format": "hh-sol-artifact-1",
  "contractName": "GameRoulette",
  "sourceName": "contracts/games/GameRoulette.sol",
  "abi": [
    {
      "inputs": [
        {
          "internalType": "address",
          "name": "_usdt",
          "type": "address"
        },
        {
          "internalType": "address",
          "name": "_vault",
          "type": "address"
        },
        {
          "internalType": "address",
          "name": "_console",
          "type": "address"
        },
        {
          "internalType": "address",
          "name": "_house",
          "type": "address"
        },
        {
          "internalType": "address",
          "name": "_rng",
          "type": "address"
        },
        {
          "internalType": "uint256",
          "name": "_id",
          "type": "uint256"
        },
        {
          "internalType": "uint256",
          "name": "_numbersPerRoll",
          "type": "uint256"
        }
      ],
      "stateMutability": "nonpayable",
      "type": "constructor"
    },
    {
      "inputs": [
        {
          "internalType": "uint256",
          "name": "bet",
          "type": "uint256"
        }
      ],
      "name": "InvalidBet",
      "type": "error"
    },
    {
      "inputs": [
        {
          "internalType": "uint256",
          "name": "_stake",
          "type": "uint256"
        },
        {
          "internalType": "uint256[50]",
          "name": "_data",
          "type": "uint256[50]"
        }
      ],
      "name": "InvalidData",
      "type": "error"
    },
    {
      "inputs": [
        {
          "internalType": "uint256",
          "name": "max",
          "type": "uint256"
        },
        {
          "internalType": "uint256",
          "name": "rolls",
          "type": "uint256"
        }
      ],
      "name": "InvalidRolls",
      "type": "error"
    },
    {
      "inputs": [
        {
          "internalType": "uint256",
          "name": "minRate",
          "type": "uint256"
        },
        {
          "internalType": "uint256",
          "name": "stake",
          "type": "uint256"
        }
      ],
      "name": "MinBet",
      "type": "error"
    },
    {
      "anonymous": false,
      "inputs": [
        {
          "indexed": true,
          "internalType": "uint256",
          "name": "betId",
          "type": "uint256"
        },
        {
          "indexed": false,
          "internalType": "uint256[]",
          "name": "_randomNumbers",
          "type": "uint256[]"
        },
        {
          "indexed": false,
          "internalType": "uint256[]",
          "name": "_rolls",
          "type": "uint256[]"
        },
        {
          "indexed": false,
          "internalType": "uint256",
          "name": "_bet",
          "type": "uint256"
        },
        {
          "indexed": false,
          "internalType": "uint256",
          "name": "_stake",
          "type": "uint256"
        },
        {
          "indexed": false,
          "internalType": "uint256",
          "name": "wins",
          "type": "uint256"
        },
        {
          "indexed": false,
          "internalType": "uint256",
          "name": "losses",
          "type": "uint256"
        },
        {
          "indexed": false,
          "internalType": "uint256",
          "name": "_payout",
          "type": "uint256"
        },
        {
          "indexed": true,
          "internalType": "address",
          "name": "_account",
          "type": "address"
        },
        {
          "indexed": true,
          "internalType": "uint256",
          "name": "_timestamp",
          "type": "uint256"
        }
      ],
      "name": "GameEnd",
      "type": "event"
    },
    {
      "anonymous": false,
      "inputs": [
        {
          "indexed": true,
          "internalType": "uint256",
          "name": "betId",
          "type": "uint256"
        },
        {
          "indexed": false,
          "internalType": "uint256",
          "name": "_bet",
          "type": "uint256"
        },
        {
          "indexed": false,
          "internalType": "uint256[50]",
          "name": "_data",
          "type": "uint256[50]"
        }
      ],
      "name": "GameStart",
      "type": "event"
    },
    {
      "anonymous": false,
      "inputs": [
        {
          "indexed": true,
          "internalType": "address",
          "name": "previousOwner",
          "type": "address"
        },
        {
          "indexed": true,
          "internalType": "address",
          "name": "newOwner",
          "type": "address"
        }
      ],
      "name": "OwnershipTransferred",
      "type": "event"
    },
    {
      "inputs": [],
      "name": "consoleInst",
      "outputs": [
        {
          "internalType": "contract IConsole",
          "name": "",
          "type": "address"
        }
      ],
      "stateMutability": "view",
      "type": "function"
    },
    {
      "inputs": [],
      "name": "getDate",
      "outputs": [
        {
          "internalType": "uint256",
          "name": "",
          "type": "uint256"
        }
      ],
      "stateMutability": "view",
      "type": "function"
    },
    {
      "inputs": [],
      "name": "getEdge",
      "outputs": [
        {
          "internalType": "uint256",
          "name": "",
          "type": "uint256"
        }
      ],
      "stateMutability": "view",
      "type": "function"
    },
    {
      "inputs": [],
      "name": "getId",
      "outputs": [
        {
          "internalType": "uint256",
          "name": "",
          "type": "uint256"
        }
      ],
      "stateMutability": "view",
      "type": "function"
    },
    {
      "inputs": [],
      "name": "getLive",
      "outputs": [
        {
          "internalType": "bool",
          "name": "",
          "type": "bool"
        }
      ],
      "stateMutability": "view",
      "type": "function"
    },
    {
      "inputs": [
        {
          "internalType": "uint256",
          "name": "",
          "type": "uint256"
        },
        {
          "internalType": "uint256[50]",
          "name": "_data",
          "type": "uint256[50]"
        }
      ],
      "name": "getMaxPayout",
      "outputs": [
        {
          "internalType": "uint256",
          "name": "",
          "type": "uint256"
        }
      ],
      "stateMutability": "view",
      "type": "function"
    },
    {
      "inputs": [],
      "name": "getName",
      "outputs": [
        {
          "internalType": "string",
          "name": "",
          "type": "string"
        }
      ],
      "stateMutability": "view",
      "type": "function"
    },
    {
      "inputs": [],
      "name": "house",
      "outputs": [
        {
          "internalType": "contract IHouse",
          "name": "",
          "type": "address"
        }
      ],
      "stateMutability": "view",
      "type": "function"
    },
    {
      "inputs": [],
      "name": "maxRoll",
      "outputs": [
        {
          "internalType": "uint256",
          "name": "",
          "type": "uint256"
        }
      ],
      "stateMutability": "view",
      "type": "function"
    },
    {
      "inputs": [],
      "name": "minBetRate",
      "outputs": [
        {
          "internalType": "uint256",
          "name": "",
          "type": "uint256"
        }
      ],
      "stateMutability": "view",
      "type": "function"
    },
    {
      "inputs": [],
      "name": "numbersPerRoll",
      "outputs": [
        {
          "internalType": "uint256",
          "name": "",
          "type": "uint256"
        }
      ],
      "stateMutability": "view",
      "type": "function"
    },
    {
      "inputs": [],
      "name": "owner",
      "outputs": [
        {
          "internalType": "address",
          "name": "",
          "type": "address"
        }
      ],
      "stateMutability": "view",
      "type": "function"
    },
    {
      "inputs": [
        {
          "internalType": "uint256",
          "name": "_rolls",
          "type": "uint256"
        },
        {
          "internalType": "uint256",
          "name": "_bet",
          "type": "uint256"
        },
        {
          "internalType": "uint256[50]",
          "name": "_data",
          "type": "uint256[50]"
        },
        {
          "internalType": "uint256",
          "name": "_stake",
          "type": "uint256"
        }
      ],
      "name": "play",
      "outputs": [],
      "stateMutability": "nonpayable",
      "type": "function"
    },
    {
      "inputs": [],
      "name": "renounceOwnership",
      "outputs": [],
      "stateMutability": "nonpayable",
      "type": "function"
    },
    {
      "inputs": [],
      "name": "rng",
      "outputs": [
        {
          "internalType": "contract IRNG",
          "name": "",
          "type": "address"
        }
      ],
      "stateMutability": "view",
      "type": "function"
    },
    {
      "inputs": [
        {
          "internalType": "address",
          "name": "_newConsole",
          "type": "address"
        }
      ],
      "name": "setConsoleInst",
      "outputs": [],
      "stateMutability": "nonpayable",
      "type": "function"
    },
    {
      "inputs": [
        {
          "internalType": "address",
          "name": "_newHouse",
          "type": "address"
        }
      ],
      "name": "setHouse",
      "outputs": [],
      "stateMutability": "nonpayable",
      "type": "function"
    },
    {
      "inputs": [
        {
          "internalType": "address",
          "name": "_newRNG",
          "type": "address"
        }
      ],
      "name": "setRNG",
      "outputs": [],
      "stateMutability": "nonpayable",
      "type": "function"
    },
    {
      "inputs": [
        {
          "internalType": "address",
          "name": "_newUSDT",
          "type": "address"
        }
      ],
      "name": "setUSDTToken",
      "outputs": [],
      "stateMutability": "nonpayable",
      "type": "function"
    },
    {
      "inputs": [
        {
          "internalType": "address",
          "name": "_newVault",
          "type": "address"
        }
      ],
      "name": "setUSDTVault",
      "outputs": [],
      "stateMutability": "nonpayable",
      "type": "function"
    },
    {
      "inputs": [
        {
          "internalType": "address",
          "name": "newOwner",
          "type": "address"
        }
      ],
      "name": "transferOwnership",
      "outputs": [],
      "stateMutability": "nonpayable",
      "type": "function"
    },
    {
      "inputs": [
        {
          "internalType": "uint256",
          "name": "_newValue",
          "type": "uint256"
        }
      ],
      "name": "updateMaxRoll",
      "outputs": [],
      "stateMutability": "nonpayable",
      "type": "function"
    },
    {
      "inputs": [
        {
          "internalType": "uint256",
          "name": "_newValue",
          "type": "uint256"
        }
      ],
      "name": "updateMinBetRate",
      "outputs": [],
      "stateMutability": "nonpayable",
      "type": "function"
    },
    {
      "inputs": [],
      "name": "usdtToken",
      "outputs": [
        {
          "internalType": "contract IERC20BackwardsCompatible",
          "name": "",
          "type": "address"
        }
      ],
      "stateMutability": "view",
      "type": "function"
    },
    {
      "inputs": [],
      "name": "usdtVault",
      "outputs": [
        {
          "internalType": "contract IUSDTVault",
          "name": "",
          "type": "address"
        }
      ],
      "stateMutability": "view",
      "type": "function"
    },
    {
      "inputs": [
        {
          "internalType": "uint256",
          "name": "_bet",
          "type": "uint256"
        },
        {
          "internalType": "uint256[50]",
          "name": "_data",
          "type": "uint256[50]"
        },
        {
          "internalType": "uint256",
          "name": "_stake",
          "type": "uint256"
        }
      ],
      "name": "validateBet",
      "outputs": [
        {
          "internalType": "uint256[50]",
          "name": "",
          "type": "uint256[50]"
        }
      ],
      "stateMutability": "pure",
      "type": "function"
    }
  ],
  "bytecode": "0x60806040523480156200001157600080fd5b5060405162001ca738038062001ca783398101604081905262000034916200012f565b868686868686866200004633620000c2565b600180546001600160a01b03199081166001600160a01b03998a16178255600280548216988a169890981790975560038054881696891696909617909555600480548716948816949094179093556005805490951691909516179092556006929092556008556007555050600060095550620001b29350505050565b600080546001600160a01b038381166001600160a01b0319831681178455604051919092169283917f8be0079c531659141344cd1fd0a4f28419497f9722a3daafe3b4186f6b6457e09190a35050565b80516001600160a01b03811681146200012a57600080fd5b919050565b600080600080600080600060e0888a0312156200014b57600080fd5b620001568862000112565b9650620001666020890162000112565b9550620001766040890162000112565b9450620001866060890162000112565b9350620001966080890162000112565b925060a0880151915060c0880151905092959891949750929550565b611ae580620001c26000396000f3fe608060405234801561001057600080fd5b506004361061018e5760003560e01c80638d794ed2116100de578063ac58fb8911610097578063e348273311610071578063e348273314610339578063e8faf28014610341578063f2fde38b14610354578063ff9b3acf1461036757600080fd5b8063ac58fb8914610300578063c086a42f14610313578063d605787b1461032657600080fd5b80638d794ed2146102825780638da5cb5b146102ad57806394dfeb31146102be578063a0e562a0146102d1578063a8bb89e4146102da578063a98ad46c146102ed57600080fd5b8063430fe9c11161014b57806366e226bd1161012557806366e226bd146102345780636aade89c14610247578063715018a6146102675780637f2a8a801461026f57600080fd5b8063430fe9c11461021b5780634ccee6ea146102235780635d1ca6311461022c57600080fd5b806305592fa21461019357806317d7de7c146101a8578063243e5775146101c657806328d0ab4a146101dd5780632ef5c6d4146101f05780633b84edbd14610208575b600080fd5b6101a66101a1366004611247565b61037a565b005b6101b06103b1565b6040516101bd9190611284565b60405180910390f35b6101cf60075481565b6040519081526020016101bd565b6101cf6101eb3660046113c0565b61043b565b6101f86105c4565b60405190151581526020016101bd565b6101a6610216366004611403565b61064d565b6101cf6106a4565b6101cf60085481565b6006546101cf565b6101a6610242366004611403565b61072d565b61025a610255366004611420565b610784565b6040516101bd9190611481565b6101a661082c565b6101a661027d366004611403565b610840565b600354610295906001600160a01b031681565b6040516001600160a01b0390911681526020016101bd565b6000546001600160a01b0316610295565b6101a66102cc366004611247565b610897565b6101cf60095481565b6101a66102e8366004611403565b6108c5565b600154610295906001600160a01b031681565b6101a661030e366004611403565b61091c565b6101a6610321366004611490565b610973565b600554610295906001600160a01b031681565b6101cf610d14565b600254610295906001600160a01b031681565b6101a6610362366004611403565b610d9d565b600454610295906001600160a01b031681565b610382610e16565b80600754036103ac5760405162461bcd60e51b81526004016103a3906114d0565b60405180910390fd5b600755565b6003546006546040516328bddef360e21b81526060926000926001600160a01b039091169163a2f77bcc916103ec9160040190815260200190565b600060405180830381865afa158015610409573d6000803e3d6000fd5b505050506040513d6000823e601f3d908101601f191682016040526104319190810190611515565b60a0015192915050565b60008080805b60258110156104b7578285826032811061045d5761045d611618565b602002015111156104825784816032811061047a5761047a611618565b602002015192505b84816032811061049457610494611618565b60200201516104a39083611644565b9150806104af81611657565b915050610441565b50806000036104de5760008460405163caa513b960e01b81526004016103a3929190611670565b6003546006546040516328bddef360e21b815260048101919091526000916001600160a01b03169063a2f77bcc90602401600060405180830381865afa15801561052c573d6000803e3d6000fd5b505050506040513d6000823e601f3d908101601f191682016040526105549190810190611515565b905061056a69d3c21bcecceda100000083611685565b69d3c21bcecceda100000082604001516025610586919061169c565b6105909190611685565b6105a469d3c21bcecceda100000086611685565b6105ae9190611685565b6105b891906116af565b93505050505b92915050565b6003546006546040516328bddef360e21b815260009283926001600160a01b039091169163a2f77bcc916105fe9160040190815260200190565b600060405180830381865afa15801561061b573d6000803e3d6000fd5b505050506040513d6000823e601f3d908101601f191682016040526106439190810190611515565b6020015192915050565b610655610e16565b6005546001600160a01b038083169116036106825760405162461bcd60e51b81526004016103a3906114d0565b600580546001600160a01b0319166001600160a01b0392909216919091179055565b6003546006546040516328bddef360e21b815260009283926001600160a01b039091169163a2f77bcc916106de9160040190815260200190565b600060405180830381865afa1580156106fb573d6000803e3d6000fd5b505050506040513d6000823e601f3d908101601f191682016040526107239190810190611515565b6060015192915050565b610735610e16565b6001546001600160a01b038083169116036107625760405162461bcd60e51b81526004016103a3906114d0565b600180546001600160a01b0319166001600160a01b0392909216919091179055565b61078c611228565b83156107ae5760405163117fa00d60e21b8152600481018590526024016103a3565b6000805b60258110156107f0578481603281106107cd576107cd611618565b60200201516107dc9083611644565b9150806107e881611657565b9150506107b2565b5080831415806107fe575080155b1561082057828460405163caa513b960e01b81526004016103a3929190611670565b839150505b9392505050565b610834610e16565b61083e6000610e70565b565b610848610e16565b6004546001600160a01b038083169116036108755760405162461bcd60e51b81526004016103a3906114d0565b600480546001600160a01b0319166001600160a01b0392909216919091179055565b61089f610e16565b80600954036108c05760405162461bcd60e51b81526004016103a3906114d0565b600955565b6108cd610e16565b6003546001600160a01b038083169116036108fa5760405162461bcd60e51b81526004016103a3906114d0565b600380546001600160a01b0319166001600160a01b0392909216919091179055565b610924610e16565b6002546001600160a01b038083169116036109515760405162461bcd60e51b81526004016103a3906114d0565b600280546001600160a01b0319166001600160a01b0392909216919091179055565b6000806000600754118015610989575060075486115b156109b5576007546040516358eb123160e11b81526004810191909152602481018790526044016103a3565b600083116109fd5760405162461bcd60e51b8152602060048201526015602482015274506c656173652062657420736f6d6520636f696e7360581b60448201526064016103a3565b600954600160009054906101000a90046001600160a01b03166001600160a01b031663313ce5676040518163ffffffff1660e01b8152600401602060405180830381865afa158015610a53573d6000803e3d6000fd5b505050506040513d601f19601f82011682018060405250810190610a7791906116d1565b610a8290600a6117d8565b610a9485670de0b6b3a7640000611685565b610a9e91906116af565b1015610acb57600954604051635b3a28c960e01b81526004810191909152602481018490526044016103a3565b6004546006546001600160a01b039091169063b7e4c35490339089898989610af3838361043b565b6040518863ffffffff1660e01b8152600401610b1597969594939291906117e7565b60408051808303816000875af1158015610b33573d6000803e3d6000fd5b505050506040513d601f19601f82011682018060405250810190610b579190611831565b6005546008549294509092506000916001600160a01b03909116906347ec651b90610b82908a611685565b6040518263ffffffff1660e01b8152600401610ba091815260200190565b6000604051808303816000875af1158015610bbf573d6000803e3d6000fd5b505050506040513d6000823e601f3d908101601f19168201604052610be79190810190611855565b90506000610bf58483610ec0565b600480546006546040516301270b4760e11b81529283018890523360248401526044830152606482018390529192506001600160a01b039091169063024e168e906084016020604051808303816000875af1158015610c58573d6000803e3d6000fd5b505050506040513d601f19601f82011682018060405250810190610c7c91906118fb565b506002546001600160a01b031663baade7bc3383610c9a898d611685565b610ca4908861169c565b6040516001600160e01b031960e086901b1681526001600160a01b03909316600484015260248301919091526044820152606401600060405180830381600087803b158015610cf257600080fd5b505af1158015610d06573d6000803e3d6000fd5b505050505050505050505050565b6003546006546040516328bddef360e21b815260009283926001600160a01b039091169163a2f77bcc91610d4e9160040190815260200190565b600060405180830381865afa158015610d6b573d6000803e3d6000fd5b505050506040513d6000823e601f3d908101601f19168201604052610d939190810190611515565b6040015192915050565b610da5610e16565b6001600160a01b038116610e0a5760405162461bcd60e51b815260206004820152602660248201527f4f776e61626c653a206e6577206f776e657220697320746865207a65726f206160448201526564647265737360d01b60648201526084016103a3565b610e1381610e70565b50565b6000546001600160a01b0316331461083e5760405162461bcd60e51b815260206004820181905260248201527f4f776e61626c653a2063616c6c6572206973206e6f7420746865206f776e657260448201526064016103a3565b600080546001600160a01b038381166001600160a01b0319831681178455604051919092169283917f8be0079c531659141344cd1fd0a4f28419497f9722a3daafe3b4186f6b6457e09190a35050565b6004805460405163061e494f60e01b815291820184905260009182916001600160a01b03169063061e494f906024016107a060405180830381865afa158015610f0d573d6000803e3d6000fd5b505050506040513d601f19601f82011682018060405250810190610f31919061195c565b90506000610f4d82608001518361014001518460a00151610784565b90506000826060015167ffffffffffffffff811115610f6e57610f6e6112b7565b604051908082528060200260200182016040528015610f97578160200160208202803683370190505b509050857f3051e7eab994ac5edefde9e7f592a4687f82dae97da5ee4aaf923178b375c971846080015184604051610fd0929190611670565b60405180910390a26003546006546040516328bddef360e21b81526000928392839283926001600160a01b03169163a2f77bcc91611015919060040190815260200190565b600060405180830381865afa158015611032573d6000803e3d6000fd5b505050506040513d6000823e601f3d908101601f1916820160405261105a9190810190611515565b905060005b87606001518110156111bd576005548a516000916001600160a01b03169063b1fb60d7908d908590811061109557611095611618565b6020026020010151600060246040518463ffffffff1660e01b81526004016110d0939291909283526020830191909152604082015260600190565b602060405180830381865afa1580156110ed573d6000803e3d6000fd5b505050506040513d601f19601f820116820180604052508101906111119190611a0b565b905087816032811061112557611125611618565b60200201511561117e57604083015161113f90602561169c565b88826032811061115157611151611618565b60200201516111609190611685565b61116a9087611644565b95508461117681611657565b95505061118c565b8361118881611657565b9450505b8087838151811061119f5761119f611618565b602090810291909101015250806111b581611657565b91505061105f565b50428761016001516001600160a01b03168b7f0eb897db80d261cd46c9c9992fa34a6fcc33f3c5d1f21489706f3f5ebc84a0768c898c608001518d60a001518a8a8d6040516112129796959493929190611a5f565b60405180910390a4509198975050505050505050565b6040518061064001604052806032906020820280368337509192915050565b60006020828403121561125957600080fd5b5035919050565b60005b8381101561127b578181015183820152602001611263565b50506000910152565b60208152600082518060208401526112a3816040850160208701611260565b601f01601f19169190910160400192915050565b634e487b7160e01b600052604160045260246000fd5b60405160c0810167ffffffffffffffff811182821017156112f0576112f06112b7565b60405290565b604051610180810167ffffffffffffffff811182821017156112f0576112f06112b7565b604051610640810167ffffffffffffffff811182821017156112f0576112f06112b7565b604051601f8201601f1916810167ffffffffffffffff81118282101715611367576113676112b7565b604052919050565b600082601f83011261138057600080fd5b61138861131a565b8061064084018581111561139b57600080fd5b845b818110156113b557803584526020938401930161139d565b509095945050505050565b60008061066083850312156113d457600080fd5b823591506113e5846020850161136f565b90509250929050565b6001600160a01b0381168114610e1357600080fd5b60006020828403121561141557600080fd5b8135610825816113ee565b6000806000610680848603121561143657600080fd5b83359250611447856020860161136f565b915061066084013590509250925092565b8060005b603281101561147b57815184526020938401939091019060010161145c565b50505050565b61064081016105be8284611458565b6000806000806106a085870312156114a757600080fd5b84359350602085013592506114bf866040870161136f565b939692955092936106800135925050565b6020808252600b908201526a105b1c9958591e4814d95d60aa1b604082015260600190565b8051801515811461150557600080fd5b919050565b8051611505816113ee565b6000602080838503121561152857600080fd5b825167ffffffffffffffff8082111561154057600080fd5b9084019060c0828703121561155457600080fd5b61155c6112cd565b8251815261156b8484016114f5565b8482015260408301516040820152606083015160608201526080830151611591816113ee565b608082015260a0830151828111156115a857600080fd5b80840193505086601f8401126115bd57600080fd5b8251828111156115cf576115cf6112b7565b6115e1601f8201601f1916860161133e565b925080835287858286010111156115f757600080fd5b61160681868501878701611260565b5060a081019190915295945050505050565b634e487b7160e01b600052603260045260246000fd5b634e487b7160e01b600052601160045260246000fd5b808201808211156105be576105be61162e565b6000600182016116695761166961162e565b5060010190565b82815261066081016108256020830184611458565b80820281158282048414176105be576105be61162e565b818103818111156105be576105be61162e565b6000826116cc57634e487b7160e01b600052601260045260246000fd5b500490565b6000602082840312156116e357600080fd5b815160ff8116811461082557600080fd5b600181815b8085111561172f5781600019048211156117155761171561162e565b8085161561172257918102915b93841c93908002906116f9565b509250929050565b600082611746575060016105be565b81611753575060006105be565b816001811461176957600281146117735761178f565b60019150506105be565b60ff8411156117845761178461162e565b50506001821b6105be565b5060208310610133831016604e8410600b84101617156117b2575081810a6105be565b6117bc83836116f4565b80600019048211156117d0576117d061162e565b029392505050565b600061082560ff841683611737565b6001600160a01b0388168152602081018790526040810186905260608101859052610700810161181a6080830186611458565b6106c08201939093526106e0015295945050505050565b6000806040838503121561184457600080fd5b505080516020909101519092909150565b6000602080838503121561186857600080fd5b825167ffffffffffffffff8082111561188057600080fd5b818501915085601f83011261189457600080fd5b8151818111156118a6576118a66112b7565b8060051b91506118b784830161133e565b81815291830184019184810190888411156118d157600080fd5b938501935b838510156118ef578451825293850193908501906118d6565b98975050505050505050565b60006020828403121561190d57600080fd5b610825826114f5565b600082601f83011261192757600080fd5b61192f61131a565b8061064084018581111561194257600080fd5b845b818110156113b5578051845260209384019301611944565b60006107a0828403121561196f57600080fd5b6119776112f6565b825181526020830151602082015260408301516040820152606083015160608201526080830151608082015260a083015160a082015260c083015160c08201526119c360e084016114f5565b60e0820152610100838101519082015261012080840151908201526101406119ed85828601611916565b908201526119fe610780840161150a565b6101608201529392505050565b600060208284031215611a1d57600080fd5b5051919050565b600081518084526020808501945080840160005b83811015611a5457815187529582019590820190600101611a38565b509495945050505050565b60e081526000611a7260e083018a611a24565b8281036020840152611a84818a611a24565b604084019890985250506060810194909452608084019290925260a083015260c0909101529291505056fea26469706673582212203ca21aebbc0b51b2d638783190cc876dc97d97ef3293a27b8284557946f20dbd64736f6c63430008120033",
  "linkReferences": {},
  "deployedLinkReferences": {}
}