{
  "_format": "hh-sol-artifact-1",
  "contractName": "House",
  "sourceName": "contracts/games/House.sol",
  "abi": [
    {
      "inputs": [
        {
          "internalType": "address",
          "name": "_vault",
          "type": "address"
        },
        {
          "internalType": "address",
          "name": "_usdt",
          "type": "address"
        },
        {
          "internalType": "address",
          "name": "_console",
          "type": "address"
        }
      ],
      "stateMutability": "nonpayable",
      "type": "constructor"
    },
    {
      "inputs": [],
      "name": "AlreadyInitialized",
      "type": "error"
    },
    {
      "inputs": [
        {
          "internalType": "uint256",
          "name": "betId",
          "type": "uint256"
        }
      ],
      "name": "BetCompleted",
      "type": "error"
    },
    {
      "inputs": [
        {
          "internalType": "uint256",
          "name": "_betSize",
          "type": "uint256"
        },
        {
          "internalType": "uint256",
          "name": "_allowance",
          "type": "uint256"
        }
      ],
      "name": "InsufficientUSDAllowance",
      "type": "error"
    },
    {
      "inputs": [
        {
          "internalType": "uint256",
          "name": "_betSize",
          "type": "uint256"
        },
        {
          "internalType": "uint256",
          "name": "_balance",
          "type": "uint256"
        }
      ],
      "name": "InsufficientUSDBalance",
      "type": "error"
    },
    {
      "inputs": [
        {
          "internalType": "uint256",
          "name": "_betSize",
          "type": "uint256"
        },
        {
          "internalType": "uint256",
          "name": "_vaultSize",
          "type": "uint256"
        }
      ],
      "name": "InsufficientVault",
      "type": "error"
    },
    {
      "inputs": [
        {
          "internalType": "uint256",
          "name": "_game",
          "type": "uint256"
        },
        {
          "internalType": "address",
          "name": "_impl",
          "type": "address"
        },
        {
          "internalType": "bool",
          "name": "_live",
          "type": "bool"
        }
      ],
      "name": "InvalidGame",
      "type": "error"
    },
    {
      "inputs": [
        {
          "internalType": "uint256",
          "name": "_betSize",
          "type": "uint256"
        },
        {
          "internalType": "uint256",
          "name": "_maxBet",
          "type": "uint256"
        }
      ],
      "name": "MaxBetExceeded",
      "type": "error"
    },
    {
      "inputs": [],
      "name": "NotInitialized",
      "type": "error"
    },
    {
      "anonymous": false,
      "inputs": [
        {
          "indexed": true,
          "internalType": "address",
          "name": "previousOwner",
          "type": "address"
        },
        {
          "indexed": true,
          "internalType": "address",
          "name": "newOwner",
          "type": "address"
        }
      ],
      "name": "OwnershipTransferred",
      "type": "event"
    },
    {
      "inputs": [],
      "name": "betFee",
      "outputs": [
        {
          "internalType": "uint256",
          "name": "",
          "type": "uint256"
        }
      ],
      "stateMutability": "view",
      "type": "function"
    },
    {
      "inputs": [
        {
          "internalType": "uint256",
          "name": "_stake",
          "type": "uint256"
        }
      ],
      "name": "calculateBetFee",
      "outputs": [
        {
          "internalType": "uint256",
          "name": "",
          "type": "uint256"
        }
      ],
      "stateMutability": "view",
      "type": "function"
    },
    {
      "inputs": [
        {
          "internalType": "uint256",
          "name": "betId",
          "type": "uint256"
        },
        {
          "internalType": "address",
          "name": "_account",
          "type": "address"
        },
        {
          "internalType": "uint256",
          "name": "_gameId",
          "type": "uint256"
        },
        {
          "internalType": "uint256",
          "name": "_payout",
          "type": "uint256"
        }
      ],
      "name": "closeWager",
      "outputs": [
        {
          "internalType": "bool",
          "name": "",
          "type": "bool"
        }
      ],
      "stateMutability": "nonpayable",
      "type": "function"
    },
    {
      "inputs": [],
      "name": "consoleInst",
      "outputs": [
        {
          "internalType": "contract IConsole",
          "name": "",
          "type": "address"
        }
      ],
      "stateMutability": "view",
      "type": "function"
    },
    {
      "inputs": [
        {
          "internalType": "uint256",
          "name": "_betId",
          "type": "uint256"
        }
      ],
      "name": "getBet",
      "outputs": [
        {
          "components": [
            {
              "internalType": "uint256",
              "name": "globalBetId",
              "type": "uint256"
            },
            {
              "internalType": "uint256",
              "name": "playerBetId",
              "type": "uint256"
            },
            {
              "internalType": "uint256",
              "name": "gameId",
              "type": "uint256"
            },
            {
              "internalType": "uint256",
              "name": "rolls",
              "type": "uint256"
            },
            {
              "internalType": "uint256",
              "name": "betNum",
              "type": "uint256"
            },
            {
              "internalType": "uint256",
              "name": "stake",
              "type": "uint256"
            },
            {
              "internalType": "uint256",
              "name": "payout",
              "type": "uint256"
            },
            {
              "internalType": "bool",
              "name": "complete",
              "type": "bool"
            },
            {
              "internalType": "uint256",
              "name": "opened",
              "type": "uint256"
            },
            {
              "internalType": "uint256",
              "name": "closed",
              "type": "uint256"
            },
            {
              "internalType": "uint256[50]",
              "name": "data",
              "type": "uint256[50]"
            },
            {
              "internalType": "address",
              "name": "player",
              "type": "address"
            }
          ],
          "internalType": "struct Types.Bet",
          "name": "",
          "type": "tuple"
        }
      ],
      "stateMutability": "view",
      "type": "function"
    },
    {
      "inputs": [
        {
          "internalType": "uint256",
          "name": "_from",
          "type": "uint256"
        },
        {
          "internalType": "uint256",
          "name": "_to",
          "type": "uint256"
        }
      ],
      "name": "getBets",
      "outputs": [
        {
          "components": [
            {
              "internalType": "uint256",
              "name": "globalBetId",
              "type": "uint256"
            },
            {
              "internalType": "uint256",
              "name": "playerBetId",
              "type": "uint256"
            },
            {
              "internalType": "uint256",
              "name": "gameId",
              "type": "uint256"
            },
            {
              "internalType": "uint256",
              "name": "rolls",
              "type": "uint256"
            },
            {
              "internalType": "uint256",
              "name": "betNum",
              "type": "uint256"
            },
            {
              "internalType": "uint256",
              "name": "stake",
              "type": "uint256"
            },
            {
              "internalType": "uint256",
              "name": "payout",
              "type": "uint256"
            },
            {
              "internalType": "bool",
              "name": "complete",
              "type": "bool"
            },
            {
              "internalType": "uint256",
              "name": "opened",
              "type": "uint256"
            },
            {
              "internalType": "uint256",
              "name": "closed",
              "type": "uint256"
            },
            {
              "internalType": "uint256[50]",
              "name": "data",
              "type": "uint256[50]"
            },
            {
              "internalType": "address",
              "name": "player",
              "type": "address"
            }
          ],
          "internalType": "struct Types.Bet[]",
          "name": "",
          "type": "tuple[]"
        }
      ],
      "stateMutability": "view",
      "type": "function"
    },
    {
      "inputs": [
        {
          "internalType": "uint256",
          "name": "_game",
          "type": "uint256"
        },
        {
          "internalType": "uint256",
          "name": "_from",
          "type": "uint256"
        },
        {
          "internalType": "uint256",
          "name": "_to",
          "type": "uint256"
        }
      ],
      "name": "getBetsByGame",
      "outputs": [
        {
          "components": [
            {
              "internalType": "uint256",
              "name": "globalBetId",
              "type": "uint256"
            },
            {
              "internalType": "uint256",
              "name": "playerBetId",
              "type": "uint256"
            },
            {
              "internalType": "uint256",
              "name": "gameId",
              "type": "uint256"
            },
            {
              "internalType": "uint256",
              "name": "rolls",
              "type": "uint256"
            },
            {
              "internalType": "uint256",
              "name": "betNum",
              "type": "uint256"
            },
            {
              "internalType": "uint256",
              "name": "stake",
              "type": "uint256"
            },
            {
              "internalType": "uint256",
              "name": "payout",
              "type": "uint256"
            },
            {
              "internalType": "bool",
              "name": "complete",
              "type": "bool"
            },
            {
              "internalType": "uint256",
              "name": "opened",
              "type": "uint256"
            },
            {
              "internalType": "uint256",
              "name": "closed",
              "type": "uint256"
            },
            {
              "internalType": "uint256[50]",
              "name": "data",
              "type": "uint256[50]"
            },
            {
              "internalType": "address",
              "name": "player",
              "type": "address"
            }
          ],
          "internalType": "struct Types.Bet[]",
          "name": "",
          "type": "tuple[]"
        }
      ],
      "stateMutability": "view",
      "type": "function"
    },
    {
      "inputs": [
        {
          "internalType": "uint256",
          "name": "_gameId",
          "type": "uint256"
        }
      ],
      "name": "getGame",
      "outputs": [
        {
          "components": [
            {
              "internalType": "uint256",
              "name": "betCount",
              "type": "uint256"
            },
            {
              "internalType": "uint256[]",
              "name": "betIds",
              "type": "uint256[]"
            }
          ],
          "internalType": "struct Types.HouseGame",
          "name": "",
          "type": "tuple"
        }
      ],
      "stateMutability": "view",
      "type": "function"
    },
    {
      "inputs": [
        {
          "internalType": "address",
          "name": "_user",
          "type": "address"
        }
      ],
      "name": "getPlayer",
      "outputs": [
        {
          "components": [
            {
              "internalType": "uint256",
              "name": "betCount",
              "type": "uint256"
            },
            {
              "internalType": "uint256[]",
              "name": "betIds",
              "type": "uint256[]"
            },
            {
              "internalType": "uint256",
              "name": "wagers",
              "type": "uint256"
            },
            {
              "internalType": "uint256",
              "name": "profits",
              "type": "uint256"
            },
            {
              "internalType": "uint256",
              "name": "wins",
              "type": "uint256"
            },
            {
              "internalType": "uint256",
              "name": "losses",
              "type": "uint256"
            }
          ],
          "internalType": "struct Types.Player",
          "name": "",
          "type": "tuple"
        }
      ],
      "stateMutability": "view",
      "type": "function"
    },
    {
      "inputs": [
        {
          "internalType": "address",
          "name": "_user",
          "type": "address"
        },
        {
          "internalType": "uint256",
          "name": "_gameId",
          "type": "uint256"
        }
      ],
      "name": "getPlayerGame",
      "outputs": [
        {
          "components": [
            {
              "internalType": "uint256",
              "name": "betCount",
              "type": "uint256"
            },
            {
              "internalType": "uint256",
              "name": "wagers",
              "type": "uint256"
            },
            {
              "internalType": "uint256",
              "name": "profits",
              "type": "uint256"
            },
            {
              "internalType": "uint256",
              "name": "wins",
              "type": "uint256"
            },
            {
              "internalType": "uint256",
              "name": "losses",
              "type": "uint256"
            }
          ],
          "internalType": "struct Types.PlayerGame",
          "name": "",
          "type": "tuple"
        }
      ],
      "stateMutability": "view",
      "type": "function"
    },
    {
      "inputs": [],
      "name": "globalBets",
      "outputs": [
        {
          "internalType": "uint256",
          "name": "",
          "type": "uint256"
        }
      ],
      "stateMutability": "view",
      "type": "function"
    },
    {
      "inputs": [],
      "name": "globalWagers",
      "outputs": [
        {
          "internalType": "uint256",
          "name": "",
          "type": "uint256"
        }
      ],
      "stateMutability": "view",
      "type": "function"
    },
    {
      "inputs": [],
      "name": "initialize",
      "outputs": [],
      "stateMutability": "nonpayable",
      "type": "function"
    },
    {
      "inputs": [
        {
          "internalType": "address",
          "name": "_account",
          "type": "address"
        },
        {
          "internalType": "uint256",
          "name": "_gameId",
          "type": "uint256"
        },
        {
          "internalType": "uint256",
          "name": "_rolls",
          "type": "uint256"
        },
        {
          "internalType": "uint256",
          "name": "_bet",
          "type": "uint256"
        },
        {
          "internalType": "uint256[50]",
          "name": "_data",
          "type": "uint256[50]"
        },
        {
          "internalType": "uint256",
          "name": "_stake",
          "type": "uint256"
        },
        {
          "internalType": "uint256",
          "name": "_maxPayout",
          "type": "uint256"
        }
      ],
      "name": "openWager",
      "outputs": [
        {
          "internalType": "uint256",
          "name": "",
          "type": "uint256"
        },
        {
          "internalType": "uint256",
          "name": "",
          "type": "uint256"
        }
      ],
      "stateMutability": "nonpayable",
      "type": "function"
    },
    {
      "inputs": [],
      "name": "owner",
      "outputs": [
        {
          "internalType": "address",
          "name": "",
          "type": "address"
        }
      ],
      "stateMutability": "view",
      "type": "function"
    },
    {
      "inputs": [],
      "name": "renounceOwnership",
      "outputs": [],
      "stateMutability": "nonpayable",
      "type": "function"
    },
    {
      "inputs": [
        {
          "internalType": "address",
          "name": "_newConsole",
          "type": "address"
        }
      ],
      "name": "setConsoleInst",
      "outputs": [],
      "stateMutability": "nonpayable",
      "type": "function"
    },
    {
      "inputs": [
        {
          "internalType": "address",
          "name": "_newUSDT",
          "type": "address"
        }
      ],
      "name": "setUSDTToken",
      "outputs": [],
      "stateMutability": "nonpayable",
      "type": "function"
    },
    {
      "inputs": [
        {
          "internalType": "address",
          "name": "_newVaule",
          "type": "address"
        }
      ],
      "name": "setUSDTVault",
      "outputs": [],
      "stateMutability": "nonpayable",
      "type": "function"
    },
    {
      "inputs": [
        {
          "internalType": "address",
          "name": "newOwner",
          "type": "address"
        }
      ],
      "name": "transferOwnership",
      "outputs": [],
      "stateMutability": "nonpayable",
      "type": "function"
    },
    {
      "inputs": [],
      "name": "usdtToken",
      "outputs": [
        {
          "internalType": "contract IERC20BackwardsCompatible",
          "name": "",
          "type": "address"
        }
      ],
      "stateMutability": "view",
      "type": "function"
    },
    {
      "inputs": [],
      "name": "usdtVault",
      "outputs": [
        {
          "internalType": "address",
          "name": "",
          "type": "address"
        }
      ],
      "stateMutability": "view",
      "type": "function"
    }
  ],
  "bytecode": "0x608060405260646006553480156200001657600080fd5b5060405162002054380380620020548339810160408190526200003991620000f4565b620000443362000087565b600180546001600160a01b039485166001600160a01b0319918216179091556007805493851693821693909317909255600880549190931691161790556200013e565b600080546001600160a01b038381166001600160a01b0319831681178455604051919092169283917f8be0079c531659141344cd1fd0a4f28419497f9722a3daafe3b4186f6b6457e09190a35050565b80516001600160a01b0381168114620000ef57600080fd5b919050565b6000806000606084860312156200010a57600080fd5b6200011584620000d7565b92506200012560208501620000d7565b91506200013560408501620000d7565b90509250925092565b611f06806200014e6000396000f3fe608060405234801561001057600080fd5b50600436106101425760003560e01c80638d794ed2116100b8578063a98ad46c1161007c578063a98ad46c146102f4578063ac58fb8914610307578063b7e4c3541461031a578063e128752014610342578063e8faf28014610355578063f2fde38b1461036857600080fd5b80638d794ed2146102655780638da5cb5b14610290578063a2f77bcc146102a1578063a8214d85146102c1578063a8bb89e4146102e157600080fd5b806366e226bd1161010a57806366e226bd146101d9578063715018a6146101ee5780637ac9fd16146101f65780637fbe23851461024b5780638129fc1c14610254578063841e6ce91461025c57600080fd5b8063024e168e14610147578063061e494f1461016f5780631eb11ac61461018f5780635c12cd4b146101b0578063635ead2e146101d0575b600080fd5b61015a610155366004611903565b61037b565b60405190151581526020015b60405180910390f35b61018261017d366004611940565b610838565b6040516101669190611a19565b6101a261019d366004611940565b610916565b604051908152602001610166565b6101c36101be366004611a28565b61093b565b6040516101669190611a80565b6101a260025481565b6101ec6101e7366004611a28565b610a22565b005b6101ec610a79565b610209610204366004611ada565b610a8d565b6040516101669190600060a082019050825182526020830151602083015260408301516040830152606083015160608301526080830151608083015292915050565b6101a260035481565b6101ec610b27565b6101a260065481565b600854610278906001600160a01b031681565b6040516001600160a01b039091168152602001610166565b6000546001600160a01b0316610278565b6102b46102af366004611940565b610b61565b6040516101669190611b06565b6102d46102cf366004611b33565b610bf1565b6040516101669190611b5f565b6101ec6102ef366004611a28565b610d7c565b600754610278906001600160a01b031681565b6101ec610315366004611a28565b610dd3565b61032d610328366004611ba2565b610e2a565b60408051928352602083019190915201610166565b6102d4610350366004611c11565b6115aa565b600154610278906001600160a01b031681565b6101ec610376366004611a28565b6116f0565b6008546040516328bddef360e21b81526004810184905260009182916001600160a01b039091169063a2f77bcc90602401600060405180830381865afa1580156103c9573d6000803e3d6000fd5b505050506040513d6000823e601f3d908101601f191682016040526103f19190810190611d38565b905080608001516001600160a01b0316336001600160a01b0316141580610423575060808101516001600160a01b0316155b1561046a57608081015160208201516040516315fe9c3960e11b8152600481018790526001600160a01b039092166024830152151560448201526064015b60405180910390fd5b6000868152600960208181526040808420815161018081018352815481526001820154938101939093526002810154838301526003810154606084015260048101546080840152600581015460a0840152600681015460c0840152600781015460ff16151560e08401526008810154610100840152928301546101208301528051610640810191829052919291610140840191600a84019060329082845b815481526020019060010190808311610508575050509183525050603c91909101546001600160a01b031660209091015260e081015190915015610562576040516369607a7d60e01b815260048101889052602401610461565b60c08101848152600160e0830181815242610120850190815260008b815260096020818152604092839020885181559088015195810195909555908601516002850155606086015160038501556080860151600485015560a0860151600585015593516006840155905160078301805460ff19169115159190911790556101008401516008830155519181019190915561014082015182919061060b90600a8301906032611813565b506101609190910151603c90910180546001600160a01b0319166001600160a01b03928316179055861660009081526005602090815260408083208884526006019091528120805460019290610662908490611e04565b9091555050606081015160a082015161067b9190611e17565b6001600160a01b0387166000908152600560209081526040808320898452600601909152812060010180549091906106b4908490611e04565b909155505060a08101518411156107c15760008160a00151856106d79190611e2e565b6001600160a01b038816600090815260056020526040812060030180549293508392909190610707908490611e04565b90915550506001600160a01b038716600090815260056020908152604080832089845260060190915281206002018054839290610745908490611e04565b90915550506001600160a01b0387166000908152600560205260408120600401805460019290610776908490611e04565b90915550506001600160a01b038716600090815260056020908152604080832089845260060190915281206003018054600192906107b5908490611e04565b90915550610828915050565b6001600160a01b03861660009081526005602081905260408220018054916107e883611e41565b90915550506001600160a01b0386166000908152600560209081526040808320888452600601909152812060040180549161082283611e41565b91905055505b60a0015190921195945050505050565b610840611851565b600082815260096020818152604092839020835161018081018552815481526001820154928101929092526002810154828501526003810154606083015260048101546080830152600581015460a0830152600681015460c0830152600781015460ff16151560e08301526008810154610100830152918201546101208201528251610640810193849052909261014084019190600a84019060329082845b8154815260200190600101908083116108df575050509183525050603c91909101546001600160a01b031660209091015292915050565b6000806127106006548461092a9190611e17565b6109349190611e5a565b9392505050565b6109746040518060c001604052806000815260200160608152602001600081526020016000815260200160008152602001600081525090565b6001600160a01b038216600090815260056020908152604091829020825160c08101845281548152600182018054855181860281018601909652808652919492938581019392908301828280156109ea57602002820191906000526020600020905b8154815260200190600101908083116109d6575b505050505081526020016002820154815260200160038201548152602001600482015481526020016005820154815250509050919050565b610a2a611769565b6007546001600160a01b03808316911603610a575760405162461bcd60e51b815260040161046190611e7c565b600780546001600160a01b0319166001600160a01b0392909216919091179055565b610a81611769565b610a8b60006117c3565b565b610abf6040518060a0016040528060008152602001600081526020016000815260200160008152602001600081525090565b506001600160a01b0382166000908152600560209081526040808320848452600601825291829020825160a081018452815481526001820154928101929092526002810154928201929092526003820154606082015260049091015460808201525b92915050565b610b2f611769565b600a5460ff1615610b525760405162dc149f60e41b815260040160405180910390fd5b600a805460ff19166001179055565b604080518082019091526000815260606020820152600082815260046020908152604091829020825180840184528154815260018201805485518186028101860190965280865291949293858101939290830182828015610be157602002820191906000526020600020905b815481526020019060010190808311610bcd575b5050505050815250509050919050565b600083815260046020526040902054606090808310610c0e578092505b82841115610c1b57600093505b60606000855b85811015610d705760008881526004602052604081206001018054600992919084908110610c5157610c51611ea1565b600091825260208083209091015483528281019390935260409182019020815161018081018352815481526001820154938101939093526002810154838301526003810154606084015260048101546080840152600581015460a0840152600681015460c0840152600781015460ff16151560e0840152600881015461010084015260098101546101208401528151610640810190925290610140830190600a830160328282826020028201915b815481526020019060010190808311610cff575050509183525050603c91909101546001600160a01b03166020909101528351849084908110610d4457610d44611ea1565b60200260200101819052508180610d5a90611e41565b9250508080610d6890611e41565b915050610c21565b50909695505050505050565b610d84611769565b6008546001600160a01b03808316911603610db15760405162461bcd60e51b815260040161046190611e7c565b600880546001600160a01b0319166001600160a01b0392909216919091179055565b610ddb611769565b6001546001600160a01b03808316911603610e085760405162461bcd60e51b815260040161046190611e7c565b600180546001600160a01b0319166001600160a01b0392909216919091179055565b600a54600090819060ff16610e52576040516321c4e35760e21b815260040160405180910390fd5b6008546040516328bddef360e21b8152600481018a90526000916001600160a01b03169063a2f77bcc90602401600060405180830381865afa158015610e9c573d6000803e3d6000fd5b505050506040513d6000823e601f3d908101601f19168201604052610ec49190810190611d38565b905080608001516001600160a01b0316336001600160a01b0316141580610ef6575060808101516001600160a01b0316155b80610f0357508060200151155b15610f4557608081015160208201516040516315fe9c3960e11b8152600481018c90526001600160a01b03909216602483015215156044820152606401610461565b506000610f528886611e17565b9050600088610f6087610916565b610f6a9088611e04565b610f749190611e17565b6007546001546040516370a0823160e01b81526001600160a01b03918216600482015292935016906370a0823190602401602060405180830381865afa158015610fc2573d6000803e3d6000fd5b505050506040513d601f19601f82011682018060405250810190610fe69190611eb7565b811115611083576007546001546040516370a0823160e01b81526001600160a01b039182166004820152849291909116906370a0823190602401602060405180830381865afa15801561103d573d6000803e3d6000fd5b505050506040513d601f19601f820116820180604052508101906110619190611eb7565b60405163556b850b60e01b815260048101929092526024820152604401610461565b6007546001546040516370a0823160e01b81526001600160a01b0391821660048201526000926103e89216906370a0823190602401602060405180830381865afa1580156110d5573d6000803e3d6000fd5b505050506040513d601f19601f820116820180604052508101906110f99190611eb7565b611104906019611e17565b61110e9190611e5a565b9050600069d3c21bcecceda1000000871061114f5769d3c21bcecceda10000006111388189611e2e565b6111429086611e17565b61114c9190611e5a565b90505b8181111561117a57604051635fa5566160e01b81526004810182905260248101839052604401610461565b50506007546040516370a0823160e01b81526001600160a01b038d8116600483015260009216906370a0823190602401602060405180830381865afa1580156111c7573d6000803e3d6000fd5b505050506040513d601f19601f820116820180604052508101906111eb9190611eb7565b9050808211156112185760405163295d0b5760e01b81526004810183905260248101829052604401610461565b50600754604051636eb1769f60e11b81526001600160a01b038d81166004830152306024830152600092169063dd62ed3e90604401602060405180830381865afa15801561126a573d6000803e3d6000fd5b505050506040513d601f19601f8201168201806040525081019061128e9190611eb7565b9050808211156112bb576040516323ea8ab760e21b81526004810183905260248101829052604401610461565b506007546001546040516323b872dd60e01b81526001600160a01b038e811660048301529182166024820152604481018490529116906323b872dd90606401600060405180830381600087803b15801561131457600080fd5b505af1158015611328573d6000803e3d6000fd5b5050604080516101808101825260035481526001600160a01b038f1660009081526005602090815283822054908301528183018f9052606082018e9052608082018d905260a082018b905260c0820181905260e0820181905242610100830152610120820152815161064081810190935290935061014084019250908a906032908390839080828437600092018290525092845250506001600160a01b038e166020928301526003805482526009808452604092839020855181559385015160018501559184015160028401556060840151908301556080830151600483015560a0830151600583015560c0830151600683015560e083015160078301805460ff191691151591909117905561010083015160088301556101208301519082015561014082015161145f90600a8301906032611813565b5061016082015181603c0160006101000a8154816001600160a01b0302191690836001600160a01b031602179055509050506001600360008282546114a49190611e04565b9250508190555081600260008282546114bd9190611e04565b90915550506001600160a01b038b1660009081526005602052604081208054916114e683611e41565b90915550506001600160a01b038b166000818152600560209081526040822060035460018083018054918201815585529284209092019190915591815260029091018054849290611538908490611e04565b909155505060008a815260046020526040812080546001929061155c908490611e04565b909155505060008a815260046020908152604082206003805460019283018054808501825590865293909420909201929092555461159a9190611e2e565b9b909a5098505050505050505050565b606060035482106115bb5760035491505b818311156115c857600092505b60606000845b848110156116e657600081815260096020818152604092839020835161018081018552815481526001820154928101929092526002810154828501526003810154606083015260048101546080830152600581015460a0830152600681015460c0830152600781015460ff16151560e08301526008810154610100830152918201546101208201528251610640810193849052909261014084019190600a84019060329082845b815481526020019060010190808311611675575050509183525050603c91909101546001600160a01b031660209091015283518490849081106116ba576116ba611ea1565b602002602001018190525081806116d090611e41565b92505080806116de90611e41565b9150506115ce565b5090949350505050565b6116f8611769565b6001600160a01b03811661175d5760405162461bcd60e51b815260206004820152602660248201527f4f776e61626c653a206e6577206f776e657220697320746865207a65726f206160448201526564647265737360d01b6064820152608401610461565b611766816117c3565b50565b6000546001600160a01b03163314610a8b5760405162461bcd60e51b815260206004820181905260248201527f4f776e61626c653a2063616c6c6572206973206e6f7420746865206f776e65726044820152606401610461565b600080546001600160a01b038381166001600160a01b0319831681178455604051919092169283917f8be0079c531659141344cd1fd0a4f28419497f9722a3daafe3b4186f6b6457e09190a35050565b8260328101928215611841579160200282015b82811115611841578251825591602001919060010190611826565b5061184d9291506118ba565b5090565b6040518061018001604052806000815260200160008152602001600081526020016000815260200160008152602001600081526020016000815260200160001515815260200160008152602001600081526020016118ad6118cf565b8152600060209091015290565b5b8082111561184d57600081556001016118bb565b6040518061064001604052806032906020820280368337509192915050565b6001600160a01b038116811461176657600080fd5b6000806000806080858703121561191957600080fd5b84359350602085013561192b816118ee565b93969395505050506040820135916060013590565b60006020828403121561195257600080fd5b5035919050565b8060005b603281101561197c57815184526020938401939091019060010161195d565b50505050565b805182526020810151602083015260408101516040830152606081015160608301526080810151608083015260a081015160a083015260c081015160c083015260e08101516119d560e084018215159052565b5061010081810151908301526101208082015190830152610140808201516119ff82850182611959565b505061016001516001600160a01b03166107809190910152565b6107a08101610b218284611982565b600060208284031215611a3a57600080fd5b8135610934816118ee565b600081518084526020808501945080840160005b83811015611a7557815187529582019590820190600101611a59565b509495945050505050565b60208152815160208201526000602083015160c06040840152611aa660e0840182611a45565b90506040840151606084015260608401516080840152608084015160a084015260a084015160c08401528091505092915050565b60008060408385031215611aed57600080fd5b8235611af8816118ee565b946020939093013593505050565b602081528151602082015260006020830151604080840152611b2b6060840182611a45565b949350505050565b600080600060608486031215611b4857600080fd5b505081359360208301359350604090920135919050565b6020808252825182820181905260009190848201906040850190845b81811015610d7057611b8e838551611982565b928401926107a09290920191600101611b7b565b6000806000806000806000610700888a031215611bbe57600080fd5b8735611bc9816118ee565b96506020880135955060408801359450606088013593506106c0880189811115611bf257600080fd5b60808901935080359250506106e0880135905092959891949750929550565b60008060408385031215611c2457600080fd5b50508035926020909101359150565b634e487b7160e01b600052604160045260246000fd5b60405160c0810167ffffffffffffffff81118282101715611c6c57611c6c611c33565b60405290565b604051601f8201601f1916810167ffffffffffffffff81118282101715611c9b57611c9b611c33565b604052919050565b8051611cae816118ee565b919050565b600082601f830112611cc457600080fd5b815167ffffffffffffffff811115611cde57611cde611c33565b6020611cf2601f8301601f19168201611c72565b8281528582848701011115611d0657600080fd5b60005b83811015611d24578581018301518282018401528201611d09565b506000928101909101919091529392505050565b600060208284031215611d4a57600080fd5b815167ffffffffffffffff80821115611d6257600080fd5b9083019060c08286031215611d7657600080fd5b611d7e611c49565b8251815260208301518015158114611d9557600080fd5b806020830152506040830151604082015260608301516060820152611dbc60808401611ca3565b608082015260a083015182811115611dd357600080fd5b611ddf87828601611cb3565b60a08301525095945050505050565b634e487b7160e01b600052601160045260246000fd5b80820180821115610b2157610b21611dee565b8082028115828204841417610b2157610b21611dee565b81810381811115610b2157610b21611dee565b600060018201611e5357611e53611dee565b5060010190565b600082611e7757634e487b7160e01b600052601260045260246000fd5b500490565b6020808252600b908201526a105b1c9958591e4814d95d60aa1b604082015260600190565b634e487b7160e01b600052603260045260246000fd5b600060208284031215611ec957600080fd5b505191905056fea2646970667358221220ebc5075b9216970e298d6b61a3845adf680735404efb5aeb485c4f8909e0bbb164736f6c63430008120033",
  "linkReferences": {},
  "deployedLinkReferences": {}
}